{
  "_format": "hh-sol-artifact-1",
  "contractName": "FeeSharingSystem",
  "sourceName": "contracts/tokenStaking/FeeSharingSystem.sol",
  "abi": [
    {
      "inputs": [
        {
          "internalType": "address",
          "name": "_ScarDustToken",
          "type": "address"
        },
        {
          "internalType": "address",
          "name": "_rewardToken",
          "type": "address"
        },
        {
          "internalType": "address",
          "name": "_tokenDistributor",
          "type": "address"
        }
      ],
      "stateMutability": "nonpayable",
      "type": "constructor"
    },
    {
      "anonymous": false,
      "inputs": [
        {
          "indexed": true,
          "internalType": "address",
          "name": "user",
          "type": "address"
        },
        {
          "indexed": false,
          "internalType": "uint256",
          "name": "amount",
          "type": "uint256"
        },
        {
          "indexed": false,
          "internalType": "uint256",
          "name": "harvestedAmount",
          "type": "uint256"
        }
      ],
      "name": "Deposit",
      "type": "event"
    },
    {
      "anonymous": false,
      "inputs": [
        {
          "indexed": true,
          "internalType": "address",
          "name": "user",
          "type": "address"
        },
        {
          "indexed": false,
          "internalType": "uint256",
          "name": "harvestedAmount",
          "type": "uint256"
        }
      ],
      "name": "Harvest",
      "type": "event"
    },
    {
      "anonymous": false,
      "inputs": [
        {
          "indexed": false,
          "internalType": "uint256",
          "name": "numberBlocks",
          "type": "uint256"
        },
        {
          "indexed": false,
          "internalType": "uint256",
          "name": "rewardPerBlock",
          "type": "uint256"
        },
        {
          "indexed": false,
          "internalType": "uint256",
          "name": "reward",
          "type": "uint256"
        }
      ],
      "name": "NewRewardPeriod",
      "type": "event"
    },
    {
      "anonymous": false,
      "inputs": [
        {
          "indexed": true,
          "internalType": "address",
          "name": "previousOwner",
          "type": "address"
        },
        {
          "indexed": true,
          "internalType": "address",
          "name": "newOwner",
          "type": "address"
        }
      ],
      "name": "OwnershipTransferred",
      "type": "event"
    },
    {
      "anonymous": false,
      "inputs": [
        {
          "indexed": true,
          "internalType": "address",
          "name": "user",
          "type": "address"
        },
        {
          "indexed": false,
          "internalType": "uint256",
          "name": "amount",
          "type": "uint256"
        },
        {
          "indexed": false,
          "internalType": "uint256",
          "name": "harvestedAmount",
          "type": "uint256"
        }
      ],
      "name": "Withdraw",
      "type": "event"
    },
    {
      "inputs": [],
      "name": "PRECISION_FACTOR",
      "outputs": [
        {
          "internalType": "uint256",
          "name": "",
          "type": "uint256"
        }
      ],
      "stateMutability": "view",
      "type": "function"
    },
    {
      "inputs": [],
      "name": "ScarDustToken",
      "outputs": [
        {
          "internalType": "contract IERC20",
          "name": "",
          "type": "address"
        }
      ],
      "stateMutability": "view",
      "type": "function"
    },
    {
      "inputs": [
        {
          "internalType": "address",
          "name": "user",
          "type": "address"
        }
      ],
      "name": "calculatePendingRewards",
      "outputs": [
        {
          "internalType": "uint256",
          "name": "",
          "type": "uint256"
        }
      ],
      "stateMutability": "view",
      "type": "function"
    },
    {
      "inputs": [],
      "name": "calculateSharePriceInLOOKS",
      "outputs": [
        {
          "internalType": "uint256",
          "name": "",
          "type": "uint256"
        }
      ],
      "stateMutability": "view",
      "type": "function"
    },
    {
      "inputs": [
        {
          "internalType": "address",
          "name": "user",
          "type": "address"
        }
      ],
      "name": "calculateSharesValueInLOOKS",
      "outputs": [
        {
          "internalType": "uint256",
          "name": "",
          "type": "uint256"
        }
      ],
      "stateMutability": "view",
      "type": "function"
    },
    {
      "inputs": [],
      "name": "currentRewardPerBlock",
      "outputs": [
        {
          "internalType": "uint256",
          "name": "",
          "type": "uint256"
        }
      ],
      "stateMutability": "view",
      "type": "function"
    },
    {
      "inputs": [
        {
          "internalType": "uint256",
          "name": "amount",
          "type": "uint256"
        },
        {
          "internalType": "bool",
          "name": "claimRewardToken",
          "type": "bool"
        }
      ],
      "name": "deposit",
      "outputs": [],
      "stateMutability": "nonpayable",
      "type": "function"
    },
    {
      "inputs": [],
      "name": "harvest",
      "outputs": [],
      "stateMutability": "nonpayable",
      "type": "function"
    },
    {
      "inputs": [],
      "name": "lastRewardAdjustment",
      "outputs": [
        {
          "internalType": "uint256",
          "name": "",
          "type": "uint256"
        }
      ],
      "stateMutability": "view",
      "type": "function"
    },
    {
      "inputs": [],
      "name": "lastRewardBlock",
      "outputs": [
        {
          "internalType": "uint256",
          "name": "",
          "type": "uint256"
        }
      ],
      "stateMutability": "view",
      "type": "function"
    },
    {
      "inputs": [],
      "name": "lastUpdateBlock",
      "outputs": [
        {
          "internalType": "uint256",
          "name": "",
          "type": "uint256"
        }
      ],
      "stateMutability": "view",
      "type": "function"
    },
    {
      "inputs": [],
      "name": "owner",
      "outputs": [
        {
          "internalType": "address",
          "name": "",
          "type": "address"
        }
      ],
      "stateMutability": "view",
      "type": "function"
    },
    {
      "inputs": [],
      "name": "periodEndBlock",
      "outputs": [
        {
          "internalType": "uint256",
          "name": "",
          "type": "uint256"
        }
      ],
      "stateMutability": "view",
      "type": "function"
    },
    {
      "inputs": [],
      "name": "renounceOwnership",
      "outputs": [],
      "stateMutability": "nonpayable",
      "type": "function"
    },
    {
      "inputs": [],
      "name": "rewardPerTokenStored",
      "outputs": [
        {
          "internalType": "uint256",
          "name": "",
          "type": "uint256"
        }
      ],
      "stateMutability": "view",
      "type": "function"
    },
    {
      "inputs": [],
      "name": "rewardToken",
      "outputs": [
        {
          "internalType": "contract IERC20",
          "name": "",
          "type": "address"
        }
      ],
      "stateMutability": "view",
      "type": "function"
    },
    {
      "inputs": [],
      "name": "tokenDistributor",
      "outputs": [
        {
          "internalType": "contract TokenDistributor",
          "name": "",
          "type": "address"
        }
      ],
      "stateMutability": "view",
      "type": "function"
    },
    {
      "inputs": [],
      "name": "totalShares",
      "outputs": [
        {
          "internalType": "uint256",
          "name": "",
          "type": "uint256"
        }
      ],
      "stateMutability": "view",
      "type": "function"
    },
    {
      "inputs": [
        {
          "internalType": "address",
          "name": "newOwner",
          "type": "address"
        }
      ],
      "name": "transferOwnership",
      "outputs": [],
      "stateMutability": "nonpayable",
      "type": "function"
    },
    {
      "inputs": [
        {
          "internalType": "uint256",
          "name": "reward",
          "type": "uint256"
        },
        {
          "internalType": "uint256",
          "name": "rewardDurationInBlocks",
          "type": "uint256"
        }
      ],
      "name": "updateRewards",
      "outputs": [],
      "stateMutability": "nonpayable",
      "type": "function"
    },
    {
      "inputs": [
        {
          "internalType": "address",
          "name": "",
          "type": "address"
        }
      ],
      "name": "userInfo",
      "outputs": [
        {
          "internalType": "uint256",
          "name": "shares",
          "type": "uint256"
        },
        {
          "internalType": "uint256",
          "name": "userRewardPerTokenPaid",
          "type": "uint256"
        },
        {
          "internalType": "uint256",
          "name": "rewards",
          "type": "uint256"
        },
        {
          "internalType": "uint256",
          "name": "rewardsWETH",
          "type": "uint256"
        }
      ],
      "stateMutability": "view",
      "type": "function"
    },
    {
      "inputs": [
        {
          "internalType": "uint256",
          "name": "shares",
          "type": "uint256"
        },
        {
          "internalType": "bool",
          "name": "claimRewardToken",
          "type": "bool"
        }
      ],
      "name": "withdraw",
      "outputs": [],
      "stateMutability": "nonpayable",
      "type": "function"
    },
    {
      "inputs": [
        {
          "internalType": "bool",
          "name": "claimRewardToken",
          "type": "bool"
        }
      ],
      "name": "withdrawAll",
      "outputs": [],
      "stateMutability": "nonpayable",
      "type": "function"
    }
  ],
  "bytecode": "0x60e06040523480156200001157600080fd5b5060405162001fc938038062001fc98339810160408190526200003491620000da565b600160005562000044336200006b565b6001600160601b0319606092831b811660a05292821b8316608052901b1660c05262000124565b600180546001600160a01b038381166001600160a01b0319831681179093556040519116919082907f8be0079c531659141344cd1fd0a4f28419497f9722a3daafe3b4186f6b6457e090600090a35050565b80516001600160a01b0381168114620000d557600080fd5b919050565b600080600060608486031215620000f057600080fd5b620000fb84620000bd565b92506200010b60208501620000bd565b91506200011b60408501620000bd565b90509250925092565b60805160601c60a05160601c60c05160601c611e03620001c6600039600081816101bd015281816105ed01528181610836015281816108e101528181610c7f01528181610d3701528181610ec301528181610f6e01528181611243015281816112fb015261141801526000818161037c0152818161073301526114c401526000818161030e0152818161078901528181610de2015261151a0152611e036000f3fe608060405234801561001057600080fd5b506004361061018d5760003560e01c80638da5cb5b116100e3578063ab5e32af1161008c578063df136d6511610066578063df136d651461035b578063f2fde38b14610364578063f7c618c11461037757600080fd5b8063ab5e32af14610330578063cb4aec6114610343578063ccd34cd51461034c57600080fd5b8063a218141b116100bd578063a218141b146102f8578063a9f8d18114610301578063aa58b0971461030957600080fd5b80638da5cb5b146102b457806397e50818146102d25780639a408321146102e557600080fd5b80633a98ef39116101455780634641257d1161011f5780634641257d1461029c5780636de26e38146102a4578063715018a6146102ac57600080fd5b80633a98ef391461028157806340d2abae1461028a578063442da82f1461029357600080fd5b80631959a002116101765780631959a002146102045780631c1c6fe51461025957806338d074361461026e57600080fd5b8063097aad101461019257806318a6bc32146101b8575b600080fd5b6101a56101a0366004611b51565b61039e565b6040519081526020015b60405180910390f35b6101df7f000000000000000000000000000000000000000000000000000000000000000081565b60405173ffffffffffffffffffffffffffffffffffffffff90911681526020016101af565b610239610212366004611b51565b60086020526000908152604090208054600182015460028301546003909301549192909184565b6040805194855260208501939093529183015260608201526080016101af565b61026c610267366004611b87565b6103af565b005b61026c61027c366004611bda565b610447565b6101a560075481565b6101a560035481565b6101a560055481565b61026c610576565b6101a56107ee565b61026c6109ba565b60015473ffffffffffffffffffffffffffffffffffffffff166101df565b61026c6102e0366004611c0a565b610a47565b61026c6102f3366004611bda565b610b73565b6101a560045481565b6101a5610e6c565b6101df7f000000000000000000000000000000000000000000000000000000000000000081565b6101a561033e366004611b51565b610e7b565b6101a560025481565b6101a5670de0b6b3a764000081565b6101a560065481565b61026c610372366004611b51565b611081565b6101df7f000000000000000000000000000000000000000000000000000000000000000081565b60006103a9826111b1565b92915050565b60026000541415610421576040517f08c379a000000000000000000000000000000000000000000000000000000000815260206004820152601f60248201527f5265656e7472616e637947756172643a207265656e7472616e742063616c6c0060448201526064015b60405180910390fd5b600260009081553381526008602052604090205461043f9082611241565b506001600055565b600260005414156104b4576040517f08c379a000000000000000000000000000000000000000000000000000000000815260206004820152601f60248201527f5265656e7472616e637947756172643a207265656e7472616e742063616c6c006044820152606401610418565b600260005581158015906104d75750336000908152600860205260409020548211155b610563576040517f08c379a000000000000000000000000000000000000000000000000000000000815260206004820152603660248201527f57697468647261773a2053686172657320657175616c20746f2030206f72206c60448201527f6172676572207468616e207573657220736861726573000000000000000000006064820152608401610418565b61056d8282611241565b50506001600055565b600260005414156105e3576040517f08c379a000000000000000000000000000000000000000000000000000000000815260206004820152601f60248201527f5265656e7472616e637947756172643a207265656e7472616e742063616c6c006044820152606401610418565b60026000819055507f000000000000000000000000000000000000000000000000000000000000000073ffffffffffffffffffffffffffffffffffffffff16632a4e051b6040518163ffffffff1660e01b8152600401600060405180830381600087803b15801561065357600080fd5b505af1158015610667573d6000803e3d6000fd5b5050505061067433611583565b33600090815260086020526040902060028101546003909101548161071a576040517f08c379a0000000000000000000000000000000000000000000000000000000008152602060048201526024808201527f486172766573743a2050656e64696e672072657761726473206d75737420626560448201527f203e2030000000000000000000000000000000000000000000000000000000006064820152608401610418565b3360008181526008602052604081206002015561076f907f000000000000000000000000000000000000000000000000000000000000000073ffffffffffffffffffffffffffffffffffffffff169084611617565b6107b073ffffffffffffffffffffffffffffffffffffffff7f0000000000000000000000000000000000000000000000000000000000000000163383611617565b60405182815233907fc9695243a805adb74c91f28311176c65b417e842d5699893cef56d18bfa48cba9060200160405180910390a250506001600055565b6040517f1959a002000000000000000000000000000000000000000000000000000000008152306004820152600090819073ffffffffffffffffffffffffffffffffffffffff7f00000000000000000000000000000000000000000000000000000000000000001690631959a00290602401604080518083038186803b15801561087757600080fd5b505afa15801561088b573d6000803e3d6000fd5b505050506040513d601f19601f820116820180604052508101906108af9190611c2c565b506040517f097aad100000000000000000000000000000000000000000000000000000000081523060048201529091507f000000000000000000000000000000000000000000000000000000000000000073ffffffffffffffffffffffffffffffffffffffff169063097aad109060240160206040518083038186803b15801561093857600080fd5b505afa15801561094c573d6000803e3d6000fd5b505050506040513d601f19601f820116820180604052508101906109709190611bc1565b61097a9082611cbd565b90506007546000146109aa5760075461099b670de0b6b3a764000083611d10565b6109a59190611cd5565b6109b4565b670de0b6b3a76400005b91505090565b60015473ffffffffffffffffffffffffffffffffffffffff163314610a3b576040517f08c379a000000000000000000000000000000000000000000000000000000000815260206004820181905260248201527f4f776e61626c653a2063616c6c6572206973206e6f7420746865206f776e65726044820152606401610418565b610a4560006116f0565b565b60015473ffffffffffffffffffffffffffffffffffffffff163314610ac8576040517f08c379a000000000000000000000000000000000000000000000000000000000815260206004820181905260248201527f4f776e61626c653a2063616c6c6572206973206e6f7420746865206f776e65726044820152606401610418565b6005544310610ae357610adb8183611cd5565b600255610b17565b8060025443600554610af59190611d4d565b610aff9190611d10565b610b099084611cbd565b610b139190611cd5565b6002555b436004819055610b28908290611cbd565b60055560025460408051838152602081019290925281018390527f55b4fa63fe43865f67b4f2c4a4df1cf9e6c1f85767211b44b45cf4649b2c2b519060600160405180910390a15050565b60026000541415610be0576040517f08c379a000000000000000000000000000000000000000000000000000000000815260206004820152601f60248201527f5265656e7472616e637947756172643a207265656e7472616e742063616c6c006044820152606401610418565b6002600055670de0b6b3a7640000821015610c7d576040517f08c379a000000000000000000000000000000000000000000000000000000000815260206004820152602560248201527f4465706f7369743a20416d6f756e74206d757374206265203e3d20312053434160448201527f52445553540000000000000000000000000000000000000000000000000000006064820152608401610418565b7f000000000000000000000000000000000000000000000000000000000000000073ffffffffffffffffffffffffffffffffffffffff16632a4e051b6040518163ffffffff1660e01b8152600401600060405180830381600087803b158015610ce557600080fd5b505af1158015610cf9573d6000803e3d6000fd5b50505050610d0633611583565b6040517f1959a0020000000000000000000000000000000000000000000000000000000081523060048201526000907f000000000000000000000000000000000000000000000000000000000000000073ffffffffffffffffffffffffffffffffffffffff1690631959a00290602401604080518083038186803b158015610d8d57600080fd5b505afa158015610da1573d6000803e3d6000fd5b505050506040513d601f19601f82011682018060405250810190610dc59190611c2c565b509050610e0a73ffffffffffffffffffffffffffffffffffffffff7f000000000000000000000000000000000000000000000000000000000000000016333086611767565b6040517f08c379a000000000000000000000000000000000000000000000000000000000815260206004820152601260248201527f4865726520697320636865636b706f696e7400000000000000000000000000006044820152606401610418565b6000610e766117cb565b905090565b6040517f1959a002000000000000000000000000000000000000000000000000000000008152306004820152600090819073ffffffffffffffffffffffffffffffffffffffff7f00000000000000000000000000000000000000000000000000000000000000001690631959a00290602401604080518083038186803b158015610f0457600080fd5b505afa158015610f18573d6000803e3d6000fd5b505050506040513d601f19601f82011682018060405250810190610f3c9190611c2c565b506040517f097aad100000000000000000000000000000000000000000000000000000000081523060048201529091507f000000000000000000000000000000000000000000000000000000000000000073ffffffffffffffffffffffffffffffffffffffff169063097aad109060240160206040518083038186803b158015610fc557600080fd5b505afa158015610fd9573d6000803e3d6000fd5b505050506040513d601f19601f82011682018060405250810190610ffd9190611bc1565b6110079082611cbd565b73ffffffffffffffffffffffffffffffffffffffff8416600090815260086020526040902054909150156110775760075473ffffffffffffffffffffffffffffffffffffffff84166000908152600860205260409020546110689083611d10565b6110729190611cd5565b61107a565b60005b9392505050565b60015473ffffffffffffffffffffffffffffffffffffffff163314611102576040517f08c379a000000000000000000000000000000000000000000000000000000000815260206004820181905260248201527f4f776e61626c653a2063616c6c6572206973206e6f7420746865206f776e65726044820152606401610418565b73ffffffffffffffffffffffffffffffffffffffff81166111a5576040517f08c379a000000000000000000000000000000000000000000000000000000000815260206004820152602660248201527f4f776e61626c653a206e6577206f776e657220697320746865207a65726f206160448201527f64647265737300000000000000000000000000000000000000000000000000006064820152608401610418565b6111ae816116f0565b50565b73ffffffffffffffffffffffffffffffffffffffff811660009081526008602052604081206002810154600190910154670de0b6b3a7640000906111f36117e2565b6111fd9190611d4d565b73ffffffffffffffffffffffffffffffffffffffff851660009081526008602052604090205461122d9190611d10565b6112379190611cd5565b6103a99190611cbd565b7f000000000000000000000000000000000000000000000000000000000000000073ffffffffffffffffffffffffffffffffffffffff16632a4e051b6040518163ffffffff1660e01b8152600401600060405180830381600087803b1580156112a957600080fd5b505af11580156112bd573d6000803e3d6000fd5b505050506112ca33611583565b6040517f1959a0020000000000000000000000000000000000000000000000000000000081523060048201526000907f000000000000000000000000000000000000000000000000000000000000000073ffffffffffffffffffffffffffffffffffffffff1690631959a00290602401604080518083038186803b15801561135157600080fd5b505afa158015611365573d6000803e3d6000fd5b505050506040513d601f19601f820116820180604052508101906113899190611c2c565b5090506000600754848361139d9190611d10565b6113a79190611cd5565b336000908152600860205260408120805492935086929091906113cb908490611d4d565b9250508190555083600760008282546113e49190611d4d565b90915550506040517f2e1a7d4d000000000000000000000000000000000000000000000000000000008152600481018290527f000000000000000000000000000000000000000000000000000000000000000073ffffffffffffffffffffffffffffffffffffffff1690632e1a7d4d90602401600060405180830381600087803b15801561147157600080fd5b505af1158015611485573d6000803e3d6000fd5b505050506000831561150057503360009081526008602052604090206002015480156115005733600081815260086020526040812060020155611500907f000000000000000000000000000000000000000000000000000000000000000073ffffffffffffffffffffffffffffffffffffffff169083611617565b61154173ffffffffffffffffffffffffffffffffffffffff7f0000000000000000000000000000000000000000000000000000000000000000163384611617565b604080518381526020810183905233917ff279e6a1f5e320cca91135676d9cb6e44ca8a08c0b88342bcdb1144f6511b568910160405180910390a25050505050565b60045443146115a3576115946117e2565b60065561159f6117cb565b6004555b6115ac816111b1565b73ffffffffffffffffffffffffffffffffffffffff82166000908152600860205260409020600201556115de816111b1565b73ffffffffffffffffffffffffffffffffffffffff90911660009081526008602052604090206003810191909155600654600190910155565b60405173ffffffffffffffffffffffffffffffffffffffff83166024820152604481018290526116eb9084907fa9059cbb00000000000000000000000000000000000000000000000000000000906064015b604080517fffffffffffffffffffffffffffffffffffffffffffffffffffffffffffffffe08184030181529190526020810180517bffffffffffffffffffffffffffffffffffffffffffffffffffffffff167fffffffff0000000000000000000000000000000000000000000000000000000090931692909217909152611845565b505050565b6001805473ffffffffffffffffffffffffffffffffffffffff8381167fffffffffffffffffffffffff0000000000000000000000000000000000000000831681179093556040519116919082907f8be0079c531659141344cd1fd0a4f28419497f9722a3daafe3b4186f6b6457e090600090a35050565b60405173ffffffffffffffffffffffffffffffffffffffff808516602483015283166044820152606481018290526117c59085907f23b872dd0000000000000000000000000000000000000000000000000000000090608401611669565b50505050565b600060055443106117dd575060055490565b504390565b6000600754600014156117f6575060065490565b600754670de0b6b3a764000060025461180f9190611d10565b60045461181a6117cb565b6118249190611d4d565b61182e9190611d10565b6118389190611cd5565b600654610e769190611cbd565b60006118a7826040518060400160405280602081526020017f5361666545524332303a206c6f772d6c6576656c2063616c6c206661696c65648152508573ffffffffffffffffffffffffffffffffffffffff166119519092919063ffffffff16565b8051909150156116eb57808060200190518101906118c59190611ba4565b6116eb576040517f08c379a000000000000000000000000000000000000000000000000000000000815260206004820152602a60248201527f5361666545524332303a204552433230206f7065726174696f6e20646964206e60448201527f6f742073756363656564000000000000000000000000000000000000000000006064820152608401610418565b60606119608484600085611968565b949350505050565b6060824710156119fa576040517f08c379a000000000000000000000000000000000000000000000000000000000815260206004820152602660248201527f416464726573733a20696e73756666696369656e742062616c616e636520666f60448201527f722063616c6c00000000000000000000000000000000000000000000000000006064820152608401610418565b73ffffffffffffffffffffffffffffffffffffffff85163b611a78576040517f08c379a000000000000000000000000000000000000000000000000000000000815260206004820152601d60248201527f416464726573733a2063616c6c20746f206e6f6e2d636f6e74726163740000006044820152606401610418565b6000808673ffffffffffffffffffffffffffffffffffffffff168587604051611aa19190611c50565b60006040518083038185875af1925050503d8060008114611ade576040519150601f19603f3d011682016040523d82523d6000602084013e611ae3565b606091505b5091509150611af3828286611afe565b979650505050505050565b60608315611b0d57508161107a565b825115611b1d5782518084602001fd5b816040517f08c379a00000000000000000000000000000000000000000000000000000000081526004016104189190611c6c565b600060208284031215611b6357600080fd5b813573ffffffffffffffffffffffffffffffffffffffff8116811461107a57600080fd5b600060208284031215611b9957600080fd5b813561107a81611dbf565b600060208284031215611bb657600080fd5b815161107a81611dbf565b600060208284031215611bd357600080fd5b5051919050565b60008060408385031215611bed57600080fd5b823591506020830135611bff81611dbf565b809150509250929050565b60008060408385031215611c1d57600080fd5b50508035926020909101359150565b60008060408385031215611c3f57600080fd5b505080516020909101519092909150565b60008251611c62818460208701611d64565b9190910192915050565b6020815260008251806020840152611c8b816040850160208701611d64565b601f017fffffffffffffffffffffffffffffffffffffffffffffffffffffffffffffffe0169190910160400192915050565b60008219821115611cd057611cd0611d90565b500190565b600082611d0b577f4e487b7100000000000000000000000000000000000000000000000000000000600052601260045260246000fd5b500490565b6000817fffffffffffffffffffffffffffffffffffffffffffffffffffffffffffffffff0483118215151615611d4857611d48611d90565b500290565b600082821015611d5f57611d5f611d90565b500390565b60005b83811015611d7f578181015183820152602001611d67565b838111156117c55750506000910152565b7f4e487b7100000000000000000000000000000000000000000000000000000000600052601160045260246000fd5b80151581146111ae57600080fdfea2646970667358221220292d4219463977b7178810513f5e96cf1fcdd493703a8f6fa707084ea15cccfc64736f6c63430008070033",
  "linkReferences": {},
  "deployedLinkReferences": {}
}