{
  "_format": "hh-sol-artifact-1",
  "contractName": "FeeSharingSystem",
  "sourceName": "contracts/tokenStaking/FeeSharingSystem.sol",
  "abi": [
    {
      "inputs": [
        {
          "internalType": "address",
          "name": "_ScarDustToken",
          "type": "address"
        },
        {
          "internalType": "address",
          "name": "_rewardToken",
          "type": "address"
        },
        {
          "internalType": "address",
          "name": "_tokenDistributor",
          "type": "address"
        }
      ],
      "stateMutability": "nonpayable",
      "type": "constructor"
    },
    {
      "anonymous": false,
      "inputs": [
        {
          "indexed": true,
          "internalType": "address",
          "name": "user",
          "type": "address"
        },
        {
          "indexed": false,
          "internalType": "uint256",
          "name": "amount",
          "type": "uint256"
        },
        {
          "indexed": false,
          "internalType": "uint256",
          "name": "harvestedAmount",
          "type": "uint256"
        }
      ],
      "name": "Deposit",
      "type": "event"
    },
    {
      "anonymous": false,
      "inputs": [
        {
          "indexed": true,
          "internalType": "address",
          "name": "user",
          "type": "address"
        },
        {
          "indexed": false,
          "internalType": "uint256",
          "name": "harvestedAmount",
          "type": "uint256"
        }
      ],
      "name": "Harvest",
      "type": "event"
    },
    {
      "anonymous": false,
      "inputs": [
        {
          "indexed": false,
          "internalType": "uint256",
          "name": "numberBlocks",
          "type": "uint256"
        },
        {
          "indexed": false,
          "internalType": "uint256",
          "name": "rewardPerBlock",
          "type": "uint256"
        },
        {
          "indexed": false,
          "internalType": "uint256",
          "name": "reward",
          "type": "uint256"
        }
      ],
      "name": "NewRewardPeriod",
      "type": "event"
    },
    {
      "anonymous": false,
      "inputs": [
        {
          "indexed": true,
          "internalType": "address",
          "name": "previousOwner",
          "type": "address"
        },
        {
          "indexed": true,
          "internalType": "address",
          "name": "newOwner",
          "type": "address"
        }
      ],
      "name": "OwnershipTransferred",
      "type": "event"
    },
    {
      "anonymous": false,
      "inputs": [
        {
          "indexed": true,
          "internalType": "address",
          "name": "user",
          "type": "address"
        },
        {
          "indexed": false,
          "internalType": "uint256",
          "name": "amount",
          "type": "uint256"
        },
        {
          "indexed": false,
          "internalType": "uint256",
          "name": "harvestedAmount",
          "type": "uint256"
        }
      ],
      "name": "Withdraw",
      "type": "event"
    },
    {
      "inputs": [],
      "name": "PRECISION_FACTOR",
      "outputs": [
        {
          "internalType": "uint256",
          "name": "",
          "type": "uint256"
        }
      ],
      "stateMutability": "view",
      "type": "function"
    },
    {
      "inputs": [],
      "name": "ScarDustToken",
      "outputs": [
        {
          "internalType": "contract IERC20",
          "name": "",
          "type": "address"
        }
      ],
      "stateMutability": "view",
      "type": "function"
    },
    {
      "inputs": [
        {
          "internalType": "address",
          "name": "user",
          "type": "address"
        }
      ],
      "name": "calculatePendingRewards",
      "outputs": [
        {
          "internalType": "uint256",
          "name": "",
          "type": "uint256"
        }
      ],
      "stateMutability": "view",
      "type": "function"
    },
    {
      "inputs": [],
      "name": "calculateSharePriceInLOOKS",
      "outputs": [
        {
          "internalType": "uint256",
          "name": "",
          "type": "uint256"
        }
      ],
      "stateMutability": "view",
      "type": "function"
    },
    {
      "inputs": [
        {
          "internalType": "address",
          "name": "user",
          "type": "address"
        }
      ],
      "name": "calculateSharesValueInLOOKS",
      "outputs": [
        {
          "internalType": "uint256",
          "name": "",
          "type": "uint256"
        }
      ],
      "stateMutability": "view",
      "type": "function"
    },
    {
      "inputs": [],
      "name": "currentRewardPerBlock",
      "outputs": [
        {
          "internalType": "uint256",
          "name": "",
          "type": "uint256"
        }
      ],
      "stateMutability": "view",
      "type": "function"
    },
    {
      "inputs": [
        {
          "internalType": "uint256",
          "name": "amount",
          "type": "uint256"
        },
        {
          "internalType": "bool",
          "name": "claimRewardToken",
          "type": "bool"
        }
      ],
      "name": "deposit",
      "outputs": [],
      "stateMutability": "nonpayable",
      "type": "function"
    },
    {
      "inputs": [],
      "name": "harvest",
      "outputs": [],
      "stateMutability": "nonpayable",
      "type": "function"
    },
    {
      "inputs": [],
      "name": "lastRewardAdjustment",
      "outputs": [
        {
          "internalType": "uint256",
          "name": "",
          "type": "uint256"
        }
      ],
      "stateMutability": "view",
      "type": "function"
    },
    {
      "inputs": [],
      "name": "lastRewardBlock",
      "outputs": [
        {
          "internalType": "uint256",
          "name": "",
          "type": "uint256"
        }
      ],
      "stateMutability": "view",
      "type": "function"
    },
    {
      "inputs": [],
      "name": "lastUpdateBlock",
      "outputs": [
        {
          "internalType": "uint256",
          "name": "",
          "type": "uint256"
        }
      ],
      "stateMutability": "view",
      "type": "function"
    },
    {
      "inputs": [],
      "name": "owner",
      "outputs": [
        {
          "internalType": "address",
          "name": "",
          "type": "address"
        }
      ],
      "stateMutability": "view",
      "type": "function"
    },
    {
      "inputs": [],
      "name": "periodEndBlock",
      "outputs": [
        {
          "internalType": "uint256",
          "name": "",
          "type": "uint256"
        }
      ],
      "stateMutability": "view",
      "type": "function"
    },
    {
      "inputs": [],
      "name": "renounceOwnership",
      "outputs": [],
      "stateMutability": "nonpayable",
      "type": "function"
    },
    {
      "inputs": [],
      "name": "rewardPerTokenStored",
      "outputs": [
        {
          "internalType": "uint256",
          "name": "",
          "type": "uint256"
        }
      ],
      "stateMutability": "view",
      "type": "function"
    },
    {
      "inputs": [],
      "name": "rewardToken",
      "outputs": [
        {
          "internalType": "contract IERC20",
          "name": "",
          "type": "address"
        }
      ],
      "stateMutability": "view",
      "type": "function"
    },
    {
      "inputs": [],
      "name": "tokenDistributor",
      "outputs": [
        {
          "internalType": "contract TokenDistributor",
          "name": "",
          "type": "address"
        }
      ],
      "stateMutability": "view",
      "type": "function"
    },
    {
      "inputs": [],
      "name": "totalShares",
      "outputs": [
        {
          "internalType": "uint256",
          "name": "",
          "type": "uint256"
        }
      ],
      "stateMutability": "view",
      "type": "function"
    },
    {
      "inputs": [
        {
          "internalType": "address",
          "name": "newOwner",
          "type": "address"
        }
      ],
      "name": "transferOwnership",
      "outputs": [],
      "stateMutability": "nonpayable",
      "type": "function"
    },
    {
      "inputs": [
        {
          "internalType": "uint256",
          "name": "reward",
          "type": "uint256"
        },
        {
          "internalType": "uint256",
          "name": "rewardDurationInBlocks",
          "type": "uint256"
        }
      ],
      "name": "updateRewards",
      "outputs": [],
      "stateMutability": "nonpayable",
      "type": "function"
    },
    {
      "inputs": [
        {
          "internalType": "address",
          "name": "",
          "type": "address"
        }
      ],
      "name": "userInfo",
      "outputs": [
        {
          "internalType": "uint256",
          "name": "shares",
          "type": "uint256"
        },
        {
          "internalType": "uint256",
          "name": "userRewardPerTokenPaid",
          "type": "uint256"
        },
        {
          "internalType": "uint256",
          "name": "rewards",
          "type": "uint256"
        },
        {
          "internalType": "uint256",
          "name": "rewardsWETH",
          "type": "uint256"
        }
      ],
      "stateMutability": "view",
      "type": "function"
    },
    {
      "inputs": [
        {
          "internalType": "uint256",
          "name": "shares",
          "type": "uint256"
        },
        {
          "internalType": "bool",
          "name": "claimRewardToken",
          "type": "bool"
        }
      ],
      "name": "withdraw",
      "outputs": [],
      "stateMutability": "nonpayable",
      "type": "function"
    },
    {
      "inputs": [
        {
          "internalType": "bool",
          "name": "claimRewardToken",
          "type": "bool"
        }
      ],
      "name": "withdrawAll",
      "outputs": [],
      "stateMutability": "nonpayable",
      "type": "function"
    }
  ],
  "bytecode": "0x60e06040523480156200001157600080fd5b50604051620023a0380380620023a08339810160408190526200003491620000da565b600160005562000044336200006b565b6001600160601b0319606092831b811660a05292821b8316608052901b1660c05262000124565b600180546001600160a01b038381166001600160a01b0319831681179093556040519116919082907f8be0079c531659141344cd1fd0a4f28419497f9722a3daafe3b4186f6b6457e090600090a35050565b80516001600160a01b0381168114620000d557600080fd5b919050565b600080600060608486031215620000f057600080fd5b620000fb84620000bd565b92506200010b60208501620000bd565b91506200011b60408501620000bd565b90509250925092565b60805160601c60a05160601c60c05160601c6121b7620001e9600039600081816101bd015281816105ed01528181610836015281816108e101528181610c7f01528181610d3701528181610f5b01528181610fae015281816110bd015281816111680152818161143d015281816114f5015261161201526000818161037c0152818161073301528181610f1901526116be01526000818161030e0152818161078901528181610de20152818161171401528181611a120152611aff01526121b76000f3fe608060405234801561001057600080fd5b506004361061018d5760003560e01c80638da5cb5b116100e3578063ab5e32af1161008c578063df136d6511610066578063df136d651461035b578063f2fde38b14610364578063f7c618c11461037757600080fd5b8063ab5e32af14610330578063cb4aec6114610343578063ccd34cd51461034c57600080fd5b8063a218141b116100bd578063a218141b146102f8578063a9f8d18114610301578063aa58b0971461030957600080fd5b80638da5cb5b146102b457806397e50818146102d25780639a408321146102e557600080fd5b80633a98ef39116101455780634641257d1161011f5780634641257d1461029c5780636de26e38146102a4578063715018a6146102ac57600080fd5b80633a98ef391461028157806340d2abae1461028a578063442da82f1461029357600080fd5b80631959a002116101765780631959a002146102045780631c1c6fe51461025957806338d074361461026e57600080fd5b8063097aad101461019257806318a6bc32146101b8575b600080fd5b6101a56101a0366004611f05565b61039e565b6040519081526020015b60405180910390f35b6101df7f000000000000000000000000000000000000000000000000000000000000000081565b60405173ffffffffffffffffffffffffffffffffffffffff90911681526020016101af565b610239610212366004611f05565b60086020526000908152604090208054600182015460028301546003909301549192909184565b6040805194855260208501939093529183015260608201526080016101af565b61026c610267366004611f3b565b6103af565b005b61026c61027c366004611f8e565b610447565b6101a560075481565b6101a560035481565b6101a560055481565b61026c610576565b6101a56107ee565b61026c6109ba565b60015473ffffffffffffffffffffffffffffffffffffffff166101df565b61026c6102e0366004611fbe565b610a47565b61026c6102f3366004611f8e565b610b73565b6101a560045481565b6101a5611066565b6101df7f000000000000000000000000000000000000000000000000000000000000000081565b6101a561033e366004611f05565b611075565b6101a560025481565b6101a5670de0b6b3a764000081565b6101a560065481565b61026c610372366004611f05565b61127b565b6101df7f000000000000000000000000000000000000000000000000000000000000000081565b60006103a9826113ab565b92915050565b60026000541415610421576040517f08c379a000000000000000000000000000000000000000000000000000000000815260206004820152601f60248201527f5265656e7472616e637947756172643a207265656e7472616e742063616c6c0060448201526064015b60405180910390fd5b600260009081553381526008602052604090205461043f908261143b565b506001600055565b600260005414156104b4576040517f08c379a000000000000000000000000000000000000000000000000000000000815260206004820152601f60248201527f5265656e7472616e637947756172643a207265656e7472616e742063616c6c006044820152606401610418565b600260005581158015906104d75750336000908152600860205260409020548211155b610563576040517f08c379a000000000000000000000000000000000000000000000000000000000815260206004820152603660248201527f57697468647261773a2053686172657320657175616c20746f2030206f72206c60448201527f6172676572207468616e207573657220736861726573000000000000000000006064820152608401610418565b61056d828261143b565b50506001600055565b600260005414156105e3576040517f08c379a000000000000000000000000000000000000000000000000000000000815260206004820152601f60248201527f5265656e7472616e637947756172643a207265656e7472616e742063616c6c006044820152606401610418565b60026000819055507f000000000000000000000000000000000000000000000000000000000000000073ffffffffffffffffffffffffffffffffffffffff16632a4e051b6040518163ffffffff1660e01b8152600401600060405180830381600087803b15801561065357600080fd5b505af1158015610667573d6000803e3d6000fd5b505050506106743361177d565b33600090815260086020526040902060028101546003909101548161071a576040517f08c379a0000000000000000000000000000000000000000000000000000000008152602060048201526024808201527f486172766573743a2050656e64696e672072657761726473206d75737420626560448201527f203e2030000000000000000000000000000000000000000000000000000000006064820152608401610418565b3360008181526008602052604081206002015561076f907f000000000000000000000000000000000000000000000000000000000000000073ffffffffffffffffffffffffffffffffffffffff169084611811565b6107b073ffffffffffffffffffffffffffffffffffffffff7f0000000000000000000000000000000000000000000000000000000000000000163383611811565b60405182815233907fc9695243a805adb74c91f28311176c65b417e842d5699893cef56d18bfa48cba9060200160405180910390a250506001600055565b6040517f1959a002000000000000000000000000000000000000000000000000000000008152306004820152600090819073ffffffffffffffffffffffffffffffffffffffff7f00000000000000000000000000000000000000000000000000000000000000001690631959a00290602401604080518083038186803b15801561087757600080fd5b505afa15801561088b573d6000803e3d6000fd5b505050506040513d601f19601f820116820180604052508101906108af9190611fe0565b506040517f097aad100000000000000000000000000000000000000000000000000000000081523060048201529091507f000000000000000000000000000000000000000000000000000000000000000073ffffffffffffffffffffffffffffffffffffffff169063097aad109060240160206040518083038186803b15801561093857600080fd5b505afa15801561094c573d6000803e3d6000fd5b505050506040513d601f19601f820116820180604052508101906109709190611f75565b61097a9082612071565b90506007546000146109aa5760075461099b670de0b6b3a7640000836120c4565b6109a59190612089565b6109b4565b670de0b6b3a76400005b91505090565b60015473ffffffffffffffffffffffffffffffffffffffff163314610a3b576040517f08c379a000000000000000000000000000000000000000000000000000000000815260206004820181905260248201527f4f776e61626c653a2063616c6c6572206973206e6f7420746865206f776e65726044820152606401610418565b610a4560006118ea565b565b60015473ffffffffffffffffffffffffffffffffffffffff163314610ac8576040517f08c379a000000000000000000000000000000000000000000000000000000000815260206004820181905260248201527f4f776e61626c653a2063616c6c6572206973206e6f7420746865206f776e65726044820152606401610418565b6005544310610ae357610adb8183612089565b600255610b17565b8060025443600554610af59190612101565b610aff91906120c4565b610b099084612071565b610b139190612089565b6002555b436004819055610b28908290612071565b60055560025460408051838152602081019290925281018390527f55b4fa63fe43865f67b4f2c4a4df1cf9e6c1f85767211b44b45cf4649b2c2b519060600160405180910390a15050565b60026000541415610be0576040517f08c379a000000000000000000000000000000000000000000000000000000000815260206004820152601f60248201527f5265656e7472616e637947756172643a207265656e7472616e742063616c6c006044820152606401610418565b6002600055670de0b6b3a7640000821015610c7d576040517f08c379a000000000000000000000000000000000000000000000000000000000815260206004820152602560248201527f4465706f7369743a20416d6f756e74206d757374206265203e3d20312053434160448201527f52445553540000000000000000000000000000000000000000000000000000006064820152608401610418565b7f000000000000000000000000000000000000000000000000000000000000000073ffffffffffffffffffffffffffffffffffffffff16632a4e051b6040518163ffffffff1660e01b8152600401600060405180830381600087803b158015610ce557600080fd5b505af1158015610cf9573d6000803e3d6000fd5b50505050610d063361177d565b6040517f1959a0020000000000000000000000000000000000000000000000000000000081523060048201526000907f000000000000000000000000000000000000000000000000000000000000000073ffffffffffffffffffffffffffffffffffffffff1690631959a00290602401604080518083038186803b158015610d8d57600080fd5b505afa158015610da1573d6000803e3d6000fd5b505050506040513d601f19601f82011682018060405250810190610dc59190611fe0565b509050610e0a73ffffffffffffffffffffffffffffffffffffffff7f000000000000000000000000000000000000000000000000000000000000000016333086611961565b6000600754600014610e9d578160075485610e2591906120c4565b610e2f9190612089565b905080610e98576040517f08c379a000000000000000000000000000000000000000000000000000000000815260206004820152600d60248201527f4465706f7369743a204661696c000000000000000000000000000000000000006044820152606401610418565b610ea0565b50825b3360009081526008602052604081208054839290610ebf908490612071565b925050819055508060076000828254610ed89190612071565b90915550600090508315610f555750336000908152600860205260409020600201548015610f555733600081815260086020526040812060020155610f55907f000000000000000000000000000000000000000000000000000000000000000073ffffffffffffffffffffffffffffffffffffffff169083611811565b610f7f857f00000000000000000000000000000000000000000000000000000000000000006119c5565b6040517fb6b55f25000000000000000000000000000000000000000000000000000000008152600481018690527f000000000000000000000000000000000000000000000000000000000000000073ffffffffffffffffffffffffffffffffffffffff169063b6b55f2590602401600060405180830381600087803b15801561100757600080fd5b505af115801561101b573d6000803e3d6000fd5b505060408051888152602081018590523393507f90890809c654f11d6e72a28fa60149770a0d11ec6c92319d6ceb2bb0a4ea1a1592500160405180910390a250506001600055505050565b6000611070611b7f565b905090565b6040517f1959a002000000000000000000000000000000000000000000000000000000008152306004820152600090819073ffffffffffffffffffffffffffffffffffffffff7f00000000000000000000000000000000000000000000000000000000000000001690631959a00290602401604080518083038186803b1580156110fe57600080fd5b505afa158015611112573d6000803e3d6000fd5b505050506040513d601f19601f820116820180604052508101906111369190611fe0565b506040517f097aad100000000000000000000000000000000000000000000000000000000081523060048201529091507f000000000000000000000000000000000000000000000000000000000000000073ffffffffffffffffffffffffffffffffffffffff169063097aad109060240160206040518083038186803b1580156111bf57600080fd5b505afa1580156111d3573d6000803e3d6000fd5b505050506040513d601f19601f820116820180604052508101906111f79190611f75565b6112019082612071565b73ffffffffffffffffffffffffffffffffffffffff8416600090815260086020526040902054909150156112715760075473ffffffffffffffffffffffffffffffffffffffff841660009081526008602052604090205461126290836120c4565b61126c9190612089565b611274565b60005b9392505050565b60015473ffffffffffffffffffffffffffffffffffffffff1633146112fc576040517f08c379a000000000000000000000000000000000000000000000000000000000815260206004820181905260248201527f4f776e61626c653a2063616c6c6572206973206e6f7420746865206f776e65726044820152606401610418565b73ffffffffffffffffffffffffffffffffffffffff811661139f576040517f08c379a000000000000000000000000000000000000000000000000000000000815260206004820152602660248201527f4f776e61626c653a206e6577206f776e657220697320746865207a65726f206160448201527f64647265737300000000000000000000000000000000000000000000000000006064820152608401610418565b6113a8816118ea565b50565b73ffffffffffffffffffffffffffffffffffffffff811660009081526008602052604081206002810154600190910154670de0b6b3a7640000906113ed611b96565b6113f79190612101565b73ffffffffffffffffffffffffffffffffffffffff851660009081526008602052604090205461142791906120c4565b6114319190612089565b6103a99190612071565b7f000000000000000000000000000000000000000000000000000000000000000073ffffffffffffffffffffffffffffffffffffffff16632a4e051b6040518163ffffffff1660e01b8152600401600060405180830381600087803b1580156114a357600080fd5b505af11580156114b7573d6000803e3d6000fd5b505050506114c43361177d565b6040517f1959a0020000000000000000000000000000000000000000000000000000000081523060048201526000907f000000000000000000000000000000000000000000000000000000000000000073ffffffffffffffffffffffffffffffffffffffff1690631959a00290602401604080518083038186803b15801561154b57600080fd5b505afa15801561155f573d6000803e3d6000fd5b505050506040513d601f19601f820116820180604052508101906115839190611fe0565b5090506000600754848361159791906120c4565b6115a19190612089565b336000908152600860205260408120805492935086929091906115c5908490612101565b9250508190555083600760008282546115de9190612101565b90915550506040517f2e1a7d4d000000000000000000000000000000000000000000000000000000008152600481018290527f000000000000000000000000000000000000000000000000000000000000000073ffffffffffffffffffffffffffffffffffffffff1690632e1a7d4d90602401600060405180830381600087803b15801561166b57600080fd5b505af115801561167f573d6000803e3d6000fd5b50505050600083156116fa57503360009081526008602052604090206002015480156116fa57336000818152600860205260408120600201556116fa907f000000000000000000000000000000000000000000000000000000000000000073ffffffffffffffffffffffffffffffffffffffff169083611811565b61173b73ffffffffffffffffffffffffffffffffffffffff7f0000000000000000000000000000000000000000000000000000000000000000163384611811565b604080518381526020810183905233917ff279e6a1f5e320cca91135676d9cb6e44ca8a08c0b88342bcdb1144f6511b568910160405180910390a25050505050565b600454431461179d5761178e611b96565b600655611799611b7f565b6004555b6117a6816113ab565b73ffffffffffffffffffffffffffffffffffffffff82166000908152600860205260409020600201556117d8816113ab565b73ffffffffffffffffffffffffffffffffffffffff90911660009081526008602052604090206003810191909155600654600190910155565b60405173ffffffffffffffffffffffffffffffffffffffff83166024820152604481018290526118e59084907fa9059cbb00000000000000000000000000000000000000000000000000000000906064015b604080517fffffffffffffffffffffffffffffffffffffffffffffffffffffffffffffffe08184030181529190526020810180517bffffffffffffffffffffffffffffffffffffffffffffffffffffffff167fffffffff0000000000000000000000000000000000000000000000000000000090931692909217909152611bf9565b505050565b6001805473ffffffffffffffffffffffffffffffffffffffff8381167fffffffffffffffffffffffff0000000000000000000000000000000000000000831681179093556040519116919082907f8be0079c531659141344cd1fd0a4f28419497f9722a3daafe3b4186f6b6457e090600090a35050565b60405173ffffffffffffffffffffffffffffffffffffffff808516602483015283166044820152606481018290526119bf9085907f23b872dd0000000000000000000000000000000000000000000000000000000090608401611863565b50505050565b6040517fdd62ed3e00000000000000000000000000000000000000000000000000000000815230600482015273ffffffffffffffffffffffffffffffffffffffff828116602483015283917f00000000000000000000000000000000000000000000000000000000000000009091169063dd62ed3e9060440160206040518083038186803b158015611a5657600080fd5b505afa158015611a6a573d6000803e3d6000fd5b505050506040513d601f19601f82011682018060405250810190611a8e9190611f75565b1015611b7b576040517f095ea7b300000000000000000000000000000000000000000000000000000000815273ffffffffffffffffffffffffffffffffffffffff82811660048301527fffffffffffffffffffffffffffffffffffffffffffffffffffffffffffffffff60248301527f0000000000000000000000000000000000000000000000000000000000000000169063095ea7b390604401602060405180830381600087803b158015611b4357600080fd5b505af1158015611b57573d6000803e3d6000fd5b505050506040513d601f19601f820116820180604052508101906118e59190611f58565b5050565b60006005544310611b91575060055490565b504390565b600060075460001415611baa575060065490565b600754670de0b6b3a7640000600254611bc391906120c4565b600454611bce611b7f565b611bd89190612101565b611be291906120c4565b611bec9190612089565b6006546110709190612071565b6000611c5b826040518060400160405280602081526020017f5361666545524332303a206c6f772d6c6576656c2063616c6c206661696c65648152508573ffffffffffffffffffffffffffffffffffffffff16611d059092919063ffffffff16565b8051909150156118e55780806020019051810190611c799190611f58565b6118e5576040517f08c379a000000000000000000000000000000000000000000000000000000000815260206004820152602a60248201527f5361666545524332303a204552433230206f7065726174696f6e20646964206e60448201527f6f742073756363656564000000000000000000000000000000000000000000006064820152608401610418565b6060611d148484600085611d1c565b949350505050565b606082471015611dae576040517f08c379a000000000000000000000000000000000000000000000000000000000815260206004820152602660248201527f416464726573733a20696e73756666696369656e742062616c616e636520666f60448201527f722063616c6c00000000000000000000000000000000000000000000000000006064820152608401610418565b73ffffffffffffffffffffffffffffffffffffffff85163b611e2c576040517f08c379a000000000000000000000000000000000000000000000000000000000815260206004820152601d60248201527f416464726573733a2063616c6c20746f206e6f6e2d636f6e74726163740000006044820152606401610418565b6000808673ffffffffffffffffffffffffffffffffffffffff168587604051611e559190612004565b60006040518083038185875af1925050503d8060008114611e92576040519150601f19603f3d011682016040523d82523d6000602084013e611e97565b606091505b5091509150611ea7828286611eb2565b979650505050505050565b60608315611ec1575081611274565b825115611ed15782518084602001fd5b816040517f08c379a00000000000000000000000000000000000000000000000000000000081526004016104189190612020565b600060208284031215611f1757600080fd5b813573ffffffffffffffffffffffffffffffffffffffff8116811461127457600080fd5b600060208284031215611f4d57600080fd5b813561127481612173565b600060208284031215611f6a57600080fd5b815161127481612173565b600060208284031215611f8757600080fd5b5051919050565b60008060408385031215611fa157600080fd5b823591506020830135611fb381612173565b809150509250929050565b60008060408385031215611fd157600080fd5b50508035926020909101359150565b60008060408385031215611ff357600080fd5b505080516020909101519092909150565b60008251612016818460208701612118565b9190910192915050565b602081526000825180602084015261203f816040850160208701612118565b601f017fffffffffffffffffffffffffffffffffffffffffffffffffffffffffffffffe0169190910160400192915050565b6000821982111561208457612084612144565b500190565b6000826120bf577f4e487b7100000000000000000000000000000000000000000000000000000000600052601260045260246000fd5b500490565b6000817fffffffffffffffffffffffffffffffffffffffffffffffffffffffffffffffff04831182151516156120fc576120fc612144565b500290565b60008282101561211357612113612144565b500390565b60005b8381101561213357818101518382015260200161211b565b838111156119bf5750506000910152565b7f4e487b7100000000000000000000000000000000000000000000000000000000600052601160045260246000fd5b80151581146113a857600080fdfea264697066735822122008ad835506b5a3409ec2a80015b9f8af03e5f13dcd6b7543372ccd1a727187f364736f6c63430008070033",
  "linkReferences": {},
  "deployedLinkReferences": {}
}