{
  "_format": "hh-sol-artifact-1",
  "contractName": "SCARDUST",
  "sourceName": "contracts/tokenStaking/ScarDustToken.sol",
  "abi": [
    {
      "inputs": [
        {
          "internalType": "uint256",
          "name": "_snipeBlockAmt",
          "type": "uint256"
        }
      ],
      "stateMutability": "nonpayable",
      "type": "constructor"
    },
    {
      "anonymous": false,
      "inputs": [
        {
          "indexed": true,
          "internalType": "address",
          "name": "owner",
          "type": "address"
        },
        {
          "indexed": true,
          "internalType": "address",
          "name": "spender",
          "type": "address"
        },
        {
          "indexed": false,
          "internalType": "uint256",
          "name": "value",
          "type": "uint256"
        }
      ],
      "name": "Approval",
      "type": "event"
    },
    {
      "anonymous": false,
      "inputs": [
        {
          "indexed": true,
          "internalType": "address",
          "name": "previousOwner",
          "type": "address"
        },
        {
          "indexed": true,
          "internalType": "address",
          "name": "newOwner",
          "type": "address"
        }
      ],
      "name": "OwnershipTransferred",
      "type": "event"
    },
    {
      "anonymous": false,
      "inputs": [
        {
          "indexed": true,
          "internalType": "address",
          "name": "pair",
          "type": "address"
        },
        {
          "indexed": true,
          "internalType": "bool",
          "name": "value",
          "type": "bool"
        }
      ],
      "name": "SetAutomatedMarketMakerPair",
      "type": "event"
    },
    {
      "anonymous": false,
      "inputs": [
        {
          "indexed": false,
          "internalType": "uint256",
          "name": "tokensSwapped",
          "type": "uint256"
        },
        {
          "indexed": false,
          "internalType": "uint256",
          "name": "ethReceived",
          "type": "uint256"
        },
        {
          "indexed": false,
          "internalType": "uint256",
          "name": "tokensIntoLiquidity",
          "type": "uint256"
        }
      ],
      "name": "SwapAndLiquify",
      "type": "event"
    },
    {
      "anonymous": false,
      "inputs": [
        {
          "indexed": true,
          "internalType": "address",
          "name": "from",
          "type": "address"
        },
        {
          "indexed": true,
          "internalType": "address",
          "name": "to",
          "type": "address"
        },
        {
          "indexed": false,
          "internalType": "uint256",
          "name": "value",
          "type": "uint256"
        }
      ],
      "name": "Transfer",
      "type": "event"
    },
    {
      "anonymous": false,
      "inputs": [
        {
          "indexed": false,
          "internalType": "uint256",
          "name": "amount",
          "type": "uint256"
        }
      ],
      "name": "tokensSwappedDuringTokenomics",
      "type": "event"
    },
    {
      "inputs": [],
      "name": "_hasLiqBeenAdded",
      "outputs": [
        {
          "internalType": "bool",
          "name": "",
          "type": "bool"
        }
      ],
      "stateMutability": "view",
      "type": "function"
    },
    {
      "inputs": [
        {
          "internalType": "address payable",
          "name": "detectedBot",
          "type": "address"
        },
        {
          "internalType": "bool",
          "name": "isBot",
          "type": "bool"
        }
      ],
      "name": "addBotWallet",
      "outputs": [],
      "stateMutability": "nonpayable",
      "type": "function"
    },
    {
      "inputs": [
        {
          "internalType": "address",
          "name": "newAddress",
          "type": "address"
        }
      ],
      "name": "addLimitExempt",
      "outputs": [],
      "stateMutability": "nonpayable",
      "type": "function"
    },
    {
      "inputs": [
        {
          "internalType": "address",
          "name": "toExclude",
          "type": "address"
        }
      ],
      "name": "addToExcluded",
      "outputs": [],
      "stateMutability": "nonpayable",
      "type": "function"
    },
    {
      "inputs": [
        {
          "internalType": "address",
          "name": "owner",
          "type": "address"
        },
        {
          "internalType": "address",
          "name": "spender",
          "type": "address"
        }
      ],
      "name": "allowance",
      "outputs": [
        {
          "internalType": "uint256",
          "name": "",
          "type": "uint256"
        }
      ],
      "stateMutability": "view",
      "type": "function"
    },
    {
      "inputs": [
        {
          "internalType": "address",
          "name": "spender",
          "type": "address"
        },
        {
          "internalType": "uint256",
          "name": "amount",
          "type": "uint256"
        }
      ],
      "name": "approve",
      "outputs": [
        {
          "internalType": "bool",
          "name": "",
          "type": "bool"
        }
      ],
      "stateMutability": "nonpayable",
      "type": "function"
    },
    {
      "inputs": [
        {
          "internalType": "address",
          "name": "",
          "type": "address"
        }
      ],
      "name": "automatedMarketMakerPairs",
      "outputs": [
        {
          "internalType": "bool",
          "name": "",
          "type": "bool"
        }
      ],
      "stateMutability": "view",
      "type": "function"
    },
    {
      "inputs": [
        {
          "internalType": "address",
          "name": "account",
          "type": "address"
        }
      ],
      "name": "balanceOf",
      "outputs": [
        {
          "internalType": "uint256",
          "name": "",
          "type": "uint256"
        }
      ],
      "stateMutability": "view",
      "type": "function"
    },
    {
      "inputs": [],
      "name": "blocksPassed",
      "outputs": [
        {
          "internalType": "uint256",
          "name": "",
          "type": "uint256"
        }
      ],
      "stateMutability": "view",
      "type": "function"
    },
    {
      "inputs": [],
      "name": "currentLiqTokens",
      "outputs": [
        {
          "internalType": "uint256",
          "name": "",
          "type": "uint256"
        }
      ],
      "stateMutability": "view",
      "type": "function"
    },
    {
      "inputs": [],
      "name": "currentMaxTx",
      "outputs": [
        {
          "internalType": "uint256",
          "name": "",
          "type": "uint256"
        }
      ],
      "stateMutability": "view",
      "type": "function"
    },
    {
      "inputs": [],
      "name": "currentMaxWallet",
      "outputs": [
        {
          "internalType": "uint256",
          "name": "",
          "type": "uint256"
        }
      ],
      "stateMutability": "view",
      "type": "function"
    },
    {
      "inputs": [],
      "name": "currentPZTokens",
      "outputs": [
        {
          "internalType": "uint256",
          "name": "",
          "type": "uint256"
        }
      ],
      "stateMutability": "view",
      "type": "function"
    },
    {
      "inputs": [],
      "name": "currentSwapTreshold",
      "outputs": [
        {
          "internalType": "uint256",
          "name": "",
          "type": "uint256"
        }
      ],
      "stateMutability": "view",
      "type": "function"
    },
    {
      "inputs": [],
      "name": "currentThresholdInt",
      "outputs": [
        {
          "internalType": "uint256",
          "name": "",
          "type": "uint256"
        }
      ],
      "stateMutability": "view",
      "type": "function"
    },
    {
      "inputs": [],
      "name": "currentTokensToSwap",
      "outputs": [
        {
          "internalType": "uint256",
          "name": "",
          "type": "uint256"
        }
      ],
      "stateMutability": "view",
      "type": "function"
    },
    {
      "inputs": [],
      "name": "currentTradeStatus",
      "outputs": [
        {
          "internalType": "bool",
          "name": "",
          "type": "bool"
        }
      ],
      "stateMutability": "view",
      "type": "function"
    },
    {
      "inputs": [],
      "name": "currentbuyP2Efee",
      "outputs": [
        {
          "internalType": "uint256",
          "name": "",
          "type": "uint256"
        }
      ],
      "stateMutability": "view",
      "type": "function"
    },
    {
      "inputs": [],
      "name": "currentbuyliqFee",
      "outputs": [
        {
          "internalType": "uint256",
          "name": "",
          "type": "uint256"
        }
      ],
      "stateMutability": "view",
      "type": "function"
    },
    {
      "inputs": [],
      "name": "currentbuymktfee",
      "outputs": [
        {
          "internalType": "uint256",
          "name": "",
          "type": "uint256"
        }
      ],
      "stateMutability": "view",
      "type": "function"
    },
    {
      "inputs": [],
      "name": "currentbuyprizepoolfee",
      "outputs": [
        {
          "internalType": "uint256",
          "name": "",
          "type": "uint256"
        }
      ],
      "stateMutability": "view",
      "type": "function"
    },
    {
      "inputs": [],
      "name": "currentmktTokens",
      "outputs": [
        {
          "internalType": "uint256",
          "name": "",
          "type": "uint256"
        }
      ],
      "stateMutability": "view",
      "type": "function"
    },
    {
      "inputs": [],
      "name": "currentsellLiqFee",
      "outputs": [
        {
          "internalType": "uint256",
          "name": "",
          "type": "uint256"
        }
      ],
      "stateMutability": "view",
      "type": "function"
    },
    {
      "inputs": [],
      "name": "currentsellP2Efee",
      "outputs": [
        {
          "internalType": "uint256",
          "name": "",
          "type": "uint256"
        }
      ],
      "stateMutability": "view",
      "type": "function"
    },
    {
      "inputs": [],
      "name": "currentsellmktfee",
      "outputs": [
        {
          "internalType": "uint256",
          "name": "",
          "type": "uint256"
        }
      ],
      "stateMutability": "view",
      "type": "function"
    },
    {
      "inputs": [],
      "name": "currentsellyprizepoolfee",
      "outputs": [
        {
          "internalType": "uint256",
          "name": "",
          "type": "uint256"
        }
      ],
      "stateMutability": "view",
      "type": "function"
    },
    {
      "inputs": [],
      "name": "deadAddress",
      "outputs": [
        {
          "internalType": "address",
          "name": "",
          "type": "address"
        }
      ],
      "stateMutability": "view",
      "type": "function"
    },
    {
      "inputs": [],
      "name": "decimals",
      "outputs": [
        {
          "internalType": "uint256",
          "name": "",
          "type": "uint256"
        }
      ],
      "stateMutability": "view",
      "type": "function"
    },
    {
      "inputs": [],
      "name": "endPresaleStatus",
      "outputs": [],
      "stateMutability": "nonpayable",
      "type": "function"
    },
    {
      "inputs": [
        {
          "internalType": "address",
          "name": "router",
          "type": "address"
        },
        {
          "internalType": "address",
          "name": "presale",
          "type": "address"
        }
      ],
      "name": "excludePresaleAddresses",
      "outputs": [],
      "stateMutability": "nonpayable",
      "type": "function"
    },
    {
      "inputs": [],
      "name": "gameLiquidityAddress",
      "outputs": [
        {
          "internalType": "address payable",
          "name": "",
          "type": "address"
        }
      ],
      "stateMutability": "view",
      "type": "function"
    },
    {
      "inputs": [],
      "name": "getOwner",
      "outputs": [
        {
          "internalType": "address",
          "name": "",
          "type": "address"
        }
      ],
      "stateMutability": "view",
      "type": "function"
    },
    {
      "inputs": [],
      "name": "goldenDay",
      "outputs": [],
      "stateMutability": "nonpayable",
      "type": "function"
    },
    {
      "inputs": [],
      "name": "goldenDayOver",
      "outputs": [],
      "stateMutability": "nonpayable",
      "type": "function"
    },
    {
      "inputs": [],
      "name": "inSwapAndLiquify",
      "outputs": [
        {
          "internalType": "bool",
          "name": "",
          "type": "bool"
        }
      ],
      "stateMutability": "view",
      "type": "function"
    },
    {
      "inputs": [
        {
          "internalType": "address",
          "name": "toCheck",
          "type": "address"
        }
      ],
      "name": "isExcluded",
      "outputs": [
        {
          "internalType": "bool",
          "name": "",
          "type": "bool"
        }
      ],
      "stateMutability": "view",
      "type": "function"
    },
    {
      "inputs": [],
      "name": "marketingAddress",
      "outputs": [
        {
          "internalType": "address payable",
          "name": "",
          "type": "address"
        }
      ],
      "stateMutability": "view",
      "type": "function"
    },
    {
      "inputs": [],
      "name": "name",
      "outputs": [
        {
          "internalType": "string",
          "name": "",
          "type": "string"
        }
      ],
      "stateMutability": "view",
      "type": "function"
    },
    {
      "inputs": [],
      "name": "owner",
      "outputs": [
        {
          "internalType": "address",
          "name": "",
          "type": "address"
        }
      ],
      "stateMutability": "view",
      "type": "function"
    },
    {
      "inputs": [],
      "name": "prizePoolAddress",
      "outputs": [
        {
          "internalType": "address payable",
          "name": "",
          "type": "address"
        }
      ],
      "stateMutability": "view",
      "type": "function"
    },
    {
      "inputs": [
        {
          "internalType": "address",
          "name": "toRemove",
          "type": "address"
        }
      ],
      "name": "removeFromExcluded",
      "outputs": [],
      "stateMutability": "nonpayable",
      "type": "function"
    },
    {
      "inputs": [],
      "name": "renounceOwnership",
      "outputs": [],
      "stateMutability": "nonpayable",
      "type": "function"
    },
    {
      "inputs": [],
      "name": "requiredTokensToSwap",
      "outputs": [
        {
          "internalType": "uint256",
          "name": "",
          "type": "uint256"
        }
      ],
      "stateMutability": "view",
      "type": "function"
    },
    {
      "inputs": [
        {
          "internalType": "address",
          "name": "pair",
          "type": "address"
        },
        {
          "internalType": "bool",
          "name": "value",
          "type": "bool"
        }
      ],
      "name": "setAutomatedMarketMakerPair",
      "outputs": [],
      "stateMutability": "nonpayable",
      "type": "function"
    },
    {
      "inputs": [
        {
          "internalType": "address",
          "name": "newAddress",
          "type": "address"
        }
      ],
      "name": "setMktAddress",
      "outputs": [],
      "stateMutability": "nonpayable",
      "type": "function"
    },
    {
      "inputs": [
        {
          "internalType": "address",
          "name": "newAddress",
          "type": "address"
        }
      ],
      "name": "setPrizePoolAddress",
      "outputs": [],
      "stateMutability": "nonpayable",
      "type": "function"
    },
    {
      "inputs": [
        {
          "internalType": "bool",
          "name": "_enabled",
          "type": "bool"
        }
      ],
      "name": "setSwapAndLiquify",
      "outputs": [],
      "stateMutability": "nonpayable",
      "type": "function"
    },
    {
      "inputs": [],
      "name": "snipersCaught",
      "outputs": [
        {
          "internalType": "uint256",
          "name": "",
          "type": "uint256"
        }
      ],
      "stateMutability": "view",
      "type": "function"
    },
    {
      "inputs": [],
      "name": "startPresaleStatus",
      "outputs": [],
      "stateMutability": "nonpayable",
      "type": "function"
    },
    {
      "inputs": [],
      "name": "swapAndLiquifyEnabled",
      "outputs": [
        {
          "internalType": "bool",
          "name": "",
          "type": "bool"
        }
      ],
      "stateMutability": "view",
      "type": "function"
    },
    {
      "inputs": [],
      "name": "symbol",
      "outputs": [
        {
          "internalType": "string",
          "name": "",
          "type": "string"
        }
      ],
      "stateMutability": "view",
      "type": "function"
    },
    {
      "inputs": [],
      "name": "totalSupply",
      "outputs": [
        {
          "internalType": "uint256",
          "name": "",
          "type": "uint256"
        }
      ],
      "stateMutability": "view",
      "type": "function"
    },
    {
      "inputs": [
        {
          "internalType": "bool",
          "name": "status",
          "type": "bool"
        }
      ],
      "name": "tradeStatus",
      "outputs": [],
      "stateMutability": "nonpayable",
      "type": "function"
    },
    {
      "inputs": [
        {
          "internalType": "address",
          "name": "recipient",
          "type": "address"
        },
        {
          "internalType": "uint256",
          "name": "amount",
          "type": "uint256"
        }
      ],
      "name": "transfer",
      "outputs": [
        {
          "internalType": "bool",
          "name": "",
          "type": "bool"
        }
      ],
      "stateMutability": "nonpayable",
      "type": "function"
    },
    {
      "inputs": [
        {
          "internalType": "address",
          "name": "sender",
          "type": "address"
        },
        {
          "internalType": "address",
          "name": "recipient",
          "type": "address"
        },
        {
          "internalType": "uint256",
          "name": "amount",
          "type": "uint256"
        }
      ],
      "name": "transferFrom",
      "outputs": [
        {
          "internalType": "bool",
          "name": "",
          "type": "bool"
        }
      ],
      "stateMutability": "nonpayable",
      "type": "function"
    },
    {
      "inputs": [
        {
          "internalType": "address",
          "name": "newOwner",
          "type": "address"
        }
      ],
      "name": "transferOwnership",
      "outputs": [],
      "stateMutability": "nonpayable",
      "type": "function"
    },
    {
      "inputs": [],
      "name": "uniswapV2Pair",
      "outputs": [
        {
          "internalType": "address",
          "name": "",
          "type": "address"
        }
      ],
      "stateMutability": "view",
      "type": "function"
    },
    {
      "inputs": [
        {
          "internalType": "address payable",
          "name": "destination",
          "type": "address"
        }
      ],
      "name": "unstuckETH",
      "outputs": [],
      "stateMutability": "nonpayable",
      "type": "function"
    },
    {
      "inputs": [
        {
          "internalType": "contract IERC20",
          "name": "tokenToClear",
          "type": "address"
        },
        {
          "internalType": "address payable",
          "name": "destination",
          "type": "address"
        },
        {
          "internalType": "uint256",
          "name": "amount",
          "type": "uint256"
        }
      ],
      "name": "unstuckTokens",
      "outputs": [],
      "stateMutability": "nonpayable",
      "type": "function"
    },
    {
      "inputs": [
        {
          "internalType": "uint256",
          "name": "newVal",
          "type": "uint256"
        }
      ],
      "name": "updateMaxTxTreshold",
      "outputs": [],
      "stateMutability": "nonpayable",
      "type": "function"
    },
    {
      "inputs": [
        {
          "internalType": "uint256",
          "name": "newVal",
          "type": "uint256"
        }
      ],
      "name": "updateMaxWalletTreshold",
      "outputs": [],
      "stateMutability": "nonpayable",
      "type": "function"
    },
    {
      "inputs": [
        {
          "internalType": "uint256",
          "name": "newVal",
          "type": "uint256"
        }
      ],
      "name": "updateSwapTreshold",
      "outputs": [],
      "stateMutability": "nonpayable",
      "type": "function"
    },
    {
      "inputs": [
        {
          "internalType": "uint256",
          "name": "newThreshold",
          "type": "uint256"
        }
      ],
      "name": "updateThreshold",
      "outputs": [],
      "stateMutability": "nonpayable",
      "type": "function"
    },
    {
      "inputs": [
        {
          "internalType": "uint256",
          "name": "newAmount",
          "type": "uint256"
        }
      ],
      "name": "updatecurrentbuyliqFee",
      "outputs": [],
      "stateMutability": "nonpayable",
      "type": "function"
    },
    {
      "inputs": [
        {
          "internalType": "uint256",
          "name": "newAmount",
          "type": "uint256"
        }
      ],
      "name": "updatecurrentbuymktfee",
      "outputs": [],
      "stateMutability": "nonpayable",
      "type": "function"
    },
    {
      "inputs": [
        {
          "internalType": "uint256",
          "name": "newAmount",
          "type": "uint256"
        }
      ],
      "name": "updatecurrentbuyprizepoolfee",
      "outputs": [],
      "stateMutability": "nonpayable",
      "type": "function"
    },
    {
      "inputs": [
        {
          "internalType": "uint256",
          "name": "newAmount",
          "type": "uint256"
        }
      ],
      "name": "updatecurrentsellLiqFee",
      "outputs": [],
      "stateMutability": "nonpayable",
      "type": "function"
    },
    {
      "inputs": [
        {
          "internalType": "uint256",
          "name": "newAmount",
          "type": "uint256"
        }
      ],
      "name": "updatecurrentsellmktfee",
      "outputs": [],
      "stateMutability": "nonpayable",
      "type": "function"
    },
    {
      "inputs": [
        {
          "internalType": "uint256",
          "name": "newAmount",
          "type": "uint256"
        }
      ],
      "name": "updatecurrentsellyprizepoolfee",
      "outputs": [],
      "stateMutability": "nonpayable",
      "type": "function"
    },
    {
      "stateMutability": "payable",
      "type": "receive"
    }
  ],
  "bytecode": "0x610100604052600860c08190526714d0d054911554d560c21b60e09081526200002c91600191906200059b565b506040805180820190915260048082526314d0d49160e21b60209092019182526200005a916002916200059b565b506003805460ff1916601290811790915560006004556005808055600655600260075560146008556200008f90600a620006f9565b620000a1906509184e72a002620007ba565b600981905568056bc75e2d63100000600a55601080546001600160a01b0319908116736f313eccf5d074e1bf53d3bbe3f4daf8cede81fa179091556011805482167325273ec4c6e3eb33008e5be00f81cdf14eb7d25a1790556012805490911673a502e3e5d89bd2bd01c4d18683146a1b5815e1d21790556005546064916200012b9190620007ba565b6200013791906200068d565b60135560646006546009546200014e9190620007ba565b6200015a91906200068d565b6014556016805461010061ffff19918216811790925560026019819055601a8190556007601b819055601c55601d819055601e819055601f81905560208190556001602181905560228190556000602381905560248054909416909355602583905560268390556027839055602882905560298290556004602a819055602b55602c829055602d829055602e829055602f9190915560308190556031556032805461ff0019169092179091556ddead00000000000000000000000060a05260338190556034819055603581905560368190556037553480156200023c57600080fd5b5060405162004991380380620049918339810160408190526200025f9162000673565b6200026a33620004f7565b600954336000908152600b602090815260409182902092909255805163c45a015560e01b81529051737a250d5630b4cf539739df2c5dacb4c659f2488d92839263c45a01559260048083019392829003018186803b158015620002cc57600080fd5b505afa158015620002e1573d6000803e3d6000fd5b505050506040513d601f19601f8201168201806040525081019062000307919062000641565b6001600160a01b031663c9c6539630836001600160a01b031663ad5c46486040518163ffffffff1660e01b815260040160206040518083038186803b1580156200035057600080fd5b505afa15801562000365573d6000803e3d6000fd5b505050506040513d601f19601f820116820180604052508101906200038b919062000641565b6040516001600160e01b031960e085901b1681526001600160a01b03928316600482015291166024820152604401602060405180830381600087803b158015620003d457600080fd5b505af1158015620003e9573d6000803e3d6000fd5b505050506040513d601f19601f820116820180604052508101906200040f919062000641565b603980546001600160a01b03199081166001600160a01b0393841617825560808590526000805484168152600c60209081526040808320805460ff199081166001908117909255308086528386208054831684179055603880548b8b169816881790559585526017909352818420805484168217905583548716845281842080548416821790559383529091208054909116821790559054620004b492169062000547565b60095460405190815233906000907fddf252ad1be2c89b69c2b068fc378daa952ba7f163c4a11628f55a4df523b3ef9060200160405180910390a350506200082f565b600080546001600160a01b038381166001600160a01b0319831681178455604051919092169283917f8be0079c531659141344cd1fd0a4f28419497f9722a3daafe3b4186f6b6457e09190a35050565b6001600160a01b0382166000818152600e6020526040808220805460ff191685151590811790915590519092917fffa9187bf1f18bf477bd0ea1bcbb64e93b6a98132473929edfce215cd9b16fab91a35050565b828054620005a990620007dc565b90600052602060002090601f016020900481019282620005cd576000855562000618565b82601f10620005e857805160ff191683800117855562000618565b8280016001018555821562000618579182015b8281111562000618578251825591602001919060010190620005fb565b50620006269291506200062a565b5090565b5b808211156200062657600081556001016200062b565b6000602082840312156200065457600080fd5b81516001600160a01b03811681146200066c57600080fd5b9392505050565b6000602082840312156200068657600080fd5b5051919050565b600082620006ab57634e487b7160e01b600052601260045260246000fd5b500490565b600181815b80851115620006f1578160001904821115620006d557620006d562000819565b80851615620006e357918102915b93841c9390800290620006b5565b509250929050565b60006200066c60ff8416836000826200071557506001620007b4565b816200072457506000620007b4565b81600181146200073d5760028114620007485762000768565b6001915050620007b4565b60ff8411156200075c576200075c62000819565b50506001821b620007b4565b5060208310610133831016604e8410600b84101617156200078d575081810a620007b4565b620007998383620006b0565b8060001904821115620007b057620007b062000819565b0290505b92915050565b6000816000190483118215151615620007d757620007d762000819565b500290565b600181811c90821680620007f157607f821691505b602082108114156200081357634e487b7160e01b600052602260045260246000fd5b50919050565b634e487b7160e01b600052601160045260246000fd5b60805160a05160601c61412b62000866600039600081816105d2015281816139390152613bde01526000612d85015261412b6000f3fe60806040526004361061044e5760003560e01c8063893d20e811610243578063bf9eb54011610143578063ddcf9b98116100bb578063edcf19b21161008a578063f7da67851161006f578063f7da678514610c6b578063f953cf3a14610c8b578063ff31e93014610ca057600080fd5b8063edcf19b214610c2b578063f2fde38b14610c4b57600080fd5b8063ddcf9b9814610bcb578063e1370dd314610be0578063e79d416014610bf5578063eb04c61814610c0b57600080fd5b8063cf297bbc11610112578063d15bcf0f116100f7578063d15bcf0f14610b40578063d7d7442f14610b58578063dd62ed3e14610b7857600080fd5b8063cf297bbc14610b0b578063d1294d4c14610b2057600080fd5b8063bf9eb54014610a70578063c5cb68a114610a90578063cb66453414610aa5578063cba0e99614610ac557600080fd5b8063a05a2367116101d6578063a9059cbb116101a5578063b4d95a931161018a578063b4d95a9314610a0b578063b62496f514610a2b578063bf9b015914610a5b57600080fd5b8063a9059cbb146109d6578063b195b839146109f657600080fd5b8063a05a23671461093c578063a5ece94114610969578063a6c38f5914610996578063a7a07452146109b657600080fd5b806395d89b411161021257806395d89b41146108dc5780639a7a23d6146108f15780639b136da414610911578063a04bdc811461092657600080fd5b8063893d20e81461087c5780638cd0260c146108a75780638da5cb5b1461087c57806390f50283146108c757600080fd5b8063425ebf481161034e5780635be76f11116102e15780636df3333a116102b0578063715018a611610295578063715018a614610827578063801527ce1461083c5780638628c23f1461085c57600080fd5b80636df3333a146107cf57806370a08231146107e457600080fd5b80635be76f111461076557806364c16163146107855780636573c4df1461079a5780636611f938146107ba57600080fd5b80634a74bb021161031d5780634a74bb02146106fd5780634bd7ace51461071c57806350a8e016146107315780635297defd1461075057600080fd5b8063425ebf481461067b578063487a69051461069b57806349bd5a5e146106b05780634a0e963c146106dd57600080fd5b8063220f6696116103e157806327c8f835116103b0578063313ce56711610395578063313ce567146106395780633cadd3c6146106515780633d7092b61461066657600080fd5b806327c8f835146105c05780632d03420b1461061957600080fd5b8063220f66961461055c57806322788f8614610576578063232b64061461058b57806323b872dd146105a057600080fd5b806311abb0811161041d57806311abb081146104f257806313b4a7f41461051257806314c0eaf91461053257806318160ddd1461054757600080fd5b8063065ba9a01461045a57806306fdde031461047e5780630882a863146104a0578063095ea7b3146104c257600080fd5b3661045557005b600080fd5b34801561046657600080fd5b50601f545b6040519081526020015b60405180910390f35b34801561048a57600080fd5b50610493610ccd565b6040516104759190613e77565b3480156104ac57600080fd5b506104c06104bb366004613ddf565b610d5f565b005b3480156104ce57600080fd5b506104e26104dd366004613d79565b610dea565b6040519015158152602001610475565b3480156104fe57600080fd5b506104c061050d366004613ddf565b610e00565b34801561051e57600080fd5b506104c061052d366004613d0a565b610e86565b34801561053e57600080fd5b5060345461046b565b34801561055357600080fd5b5060095461046b565b34801561056857600080fd5b506032546104e29060ff1681565b34801561058257600080fd5b5060085461046b565b34801561059757600080fd5b506104c0610f92565b3480156105ac57600080fd5b506104e26105bb366004613d38565b61103d565b3480156105cc57600080fd5b506105f47f000000000000000000000000000000000000000000000000000000000000000081565b60405173ffffffffffffffffffffffffffffffffffffffff9091168152602001610475565b34801561062557600080fd5b506104c0610634366004613da5565b61115a565b34801561064557600080fd5b5060035460ff1661046b565b34801561065d57600080fd5b50602c5461046b565b34801561067257600080fd5b50602e5461046b565b34801561068757600080fd5b506104c0610696366004613ddf565b61120c565b3480156106a757600080fd5b50600a5461046b565b3480156106bc57600080fd5b506039546105f49073ffffffffffffffffffffffffffffffffffffffff1681565b3480156106e957600080fd5b506104c06106f8366004613c97565b611292565b34801561070957600080fd5b506032546104e290610100900460ff1681565b34801561072857600080fd5b5060195461046b565b34801561073d57600080fd5b506024546104e290610100900460ff1681565b34801561075c57600080fd5b50602a5461046b565b34801561077157600080fd5b506104c0610780366004613c97565b611362565b34801561079157600080fd5b5060355461046b565b3480156107a657600080fd5b506104c06107b5366004613ddf565b61142d565b3480156107c657600080fd5b506104c06114d4565b3480156107db57600080fd5b5060075461046b565b3480156107f057600080fd5b5061046b6107ff366004613c97565b73ffffffffffffffffffffffffffffffffffffffff166000908152600b602052604090205490565b34801561083357600080fd5b506104c0611613565b34801561084857600080fd5b506104c0610857366004613da5565b6116a0565b34801561086857600080fd5b506104c0610877366004613ddf565b611758565b34801561088857600080fd5b5060005473ffffffffffffffffffffffffffffffffffffffff166105f4565b3480156108b357600080fd5b506104c06108c2366004613ddf565b6117e3565b3480156108d357600080fd5b5060285461046b565b3480156108e857600080fd5b50610493611869565b3480156108fd57600080fd5b506104c061090c366004613cd1565b611878565b34801561091d57600080fd5b50601b5461046b565b34801561093257600080fd5b5061046b600a5481565b34801561094857600080fd5b506012546105f49073ffffffffffffffffffffffffffffffffffffffff1681565b34801561097557600080fd5b506010546105f49073ffffffffffffffffffffffffffffffffffffffff1681565b3480156109a257600080fd5b506104c06109b1366004613cd1565b6119b2565b3480156109c257600080fd5b506104c06109d1366004613ddf565b611a89565b3480156109e257600080fd5b506104e26109f1366004613d79565b611b30565b348015610a0257600080fd5b506104c0611b3d565b348015610a1757600080fd5b506104c0610a26366004613c97565b611be7565b348015610a3757600080fd5b506104e2610a46366004613c97565b600e6020526000908152604090205460ff1681565b348015610a6757600080fd5b5060145461046b565b348015610a7c57600080fd5b506104c0610a8b366004613c97565b611cb4565b348015610a9c57600080fd5b50601d5461046b565b348015610ab157600080fd5b506104c0610ac0366004613c97565b611d7c565b348015610ad157600080fd5b506104e2610ae0366004613c97565b73ffffffffffffffffffffffffffffffffffffffff166000908152600c602052604090205460ff1690565b348015610b1757600080fd5b5061046b611e4c565b348015610b2c57600080fd5b506104c0610b3b366004613ddf565b611e58565b348015610b4c57600080fd5b5060245460ff166104e2565b348015610b6457600080fd5b506104c0610b73366004613ddf565b611f00565b348015610b8457600080fd5b5061046b610b93366004613d0a565b73ffffffffffffffffffffffffffffffffffffffff9182166000908152600d6020908152604080832093909416825291909152205490565b348015610bd757600080fd5b5060335461046b565b348015610bec57600080fd5b5060135461046b565b348015610c0157600080fd5b5061046b60275481565b348015610c1757600080fd5b506104c0610c26366004613c97565b611f86565b348015610c3757600080fd5b506104c0610c46366004613ddf565b61204e565b348015610c5757600080fd5b506104c0610c66366004613c97565b6120d4565b348015610c7757600080fd5b506104c0610c86366004613d38565b612204565b348015610c9757600080fd5b506104c0612333565b348015610cac57600080fd5b506011546105f49073ffffffffffffffffffffffffffffffffffffffff1681565b606060018054610cdc90613fda565b80601f0160208091040260200160405190810160405280929190818152602001828054610d0890613fda565b8015610d555780601f10610d2a57610100808354040283529160200191610d55565b820191906000526020600020905b815481529060010190602001808311610d3857829003601f168201915b5050505050905090565b60005473ffffffffffffffffffffffffffffffffffffffff163314610de5576040517f08c379a000000000000000000000000000000000000000000000000000000000815260206004820181905260248201527f4f776e61626c653a2063616c6c6572206973206e6f7420746865206f776e657260448201526064015b60405180910390fd5b601955565b6000610df73384846123dd565b50600192915050565b60005473ffffffffffffffffffffffffffffffffffffffff163314610e81576040517f08c379a000000000000000000000000000000000000000000000000000000000815260206004820181905260248201527f4f776e61626c653a2063616c6c6572206973206e6f7420746865206f776e65726044820152606401610ddc565b602c55565b60005473ffffffffffffffffffffffffffffffffffffffff163314610f07576040517f08c379a000000000000000000000000000000000000000000000000000000000815260206004820181905260248201527f4f776e61626c653a2063616c6c6572206973206e6f7420746865206f776e65726044820152606401610ddc565b73ffffffffffffffffffffffffffffffffffffffff9182166000818152601760209081526040808320805460017fffffffffffffffffffffffffffffffffffffffffffffffffffffffffffffff009182168117909255959096168084528184208054871688179055938352601890915280822080548516861790559181522080549091169091179055565b60005473ffffffffffffffffffffffffffffffffffffffff163314611013576040517f08c379a000000000000000000000000000000000000000000000000000000000815260206004820181905260248201527f4f776e61626c653a2063616c6c6572206973206e6f7420746865206f776e65726044820152606401610ddc565b601a54601955601c54601b55601e54601d55602054601f556110384262015180613f33565b602355565b73ffffffffffffffffffffffffffffffffffffffff83166000908152600d602090815260408083203384529091528120548211156110fd576040517f08c379a000000000000000000000000000000000000000000000000000000000815260206004820152602d60248201527f45524332303a207472616e7366657220616d6f756e742065786365656473206160448201527f6c6c6f77616e6365215f215f21000000000000000000000000000000000000006064820152608401610ddc565b611108848484612590565b73ffffffffffffffffffffffffffffffffffffffff84166000908152600d602090815260408083203380855292529091205461115091869161114b908690613fc3565b6123dd565b5060019392505050565b60005473ffffffffffffffffffffffffffffffffffffffff1633146111db576040517f08c379a000000000000000000000000000000000000000000000000000000000815260206004820181905260248201527f4f776e61626c653a2063616c6c6572206973206e6f7420746865206f776e65726044820152606401610ddc565b602480547fffffffffffffffffffffffffffffffffffffffffffffffffffffffffffffff0016911515919091179055565b60005473ffffffffffffffffffffffffffffffffffffffff16331461128d576040517f08c379a000000000000000000000000000000000000000000000000000000000815260206004820181905260248201527f4f776e61626c653a2063616c6c6572206973206e6f7420746865206f776e65726044820152606401610ddc565b601d55565b60005473ffffffffffffffffffffffffffffffffffffffff163314611313576040517f08c379a000000000000000000000000000000000000000000000000000000000815260206004820181905260248201527f4f776e61626c653a2063616c6c6572206973206e6f7420746865206f776e65726044820152606401610ddc565b73ffffffffffffffffffffffffffffffffffffffff166000908152600c6020526040902080547fffffffffffffffffffffffffffffffffffffffffffffffffffffffffffffff00166001179055565b60005473ffffffffffffffffffffffffffffffffffffffff1633146113e3576040517f08c379a000000000000000000000000000000000000000000000000000000000815260206004820181905260248201527f4f776e61626c653a2063616c6c6572206973206e6f7420746865206f776e65726044820152606401610ddc565b604051479073ffffffffffffffffffffffffffffffffffffffff83169082156108fc029083906000818181858888f19350505050158015611428573d6000803e3d6000fd5b505050565b60005473ffffffffffffffffffffffffffffffffffffffff1633146114ae576040517f08c379a000000000000000000000000000000000000000000000000000000000815260206004820181905260248201527f4f776e61626c653a2063616c6c6572206973206e6f7420746865206f776e65726044820152606401610ddc565b60058190556009546064906114c4908390613f86565b6114ce9190613f4b565b60135550565b60005473ffffffffffffffffffffffffffffffffffffffff163314611555576040517f08c379a000000000000000000000000000000000000000000000000000000000815260206004820181905260248201527f4f776e61626c653a2063616c6c6572206973206e6f7420746865206f776e65726044820152606401610ddc565b60235442116115e6576040517f08c379a000000000000000000000000000000000000000000000000000000000815260206004820152602f60248201527f596f752063616e742063616c6c20676f6c64656e20446179206d6f726520746860448201527f616e206f6e6365207065722064617900000000000000000000000000000000006064820152608401610ddc565b601b8054601c5560198054601a55601d8054601e55601f8054602055600092839055928290558190559055565b60005473ffffffffffffffffffffffffffffffffffffffff163314611694576040517f08c379a000000000000000000000000000000000000000000000000000000000815260206004820181905260248201527f4f776e61626c653a2063616c6c6572206973206e6f7420746865206f776e65726044820152606401610ddc565b61169e60006130f0565b565b60005473ffffffffffffffffffffffffffffffffffffffff163314611721576040517f08c379a000000000000000000000000000000000000000000000000000000000815260206004820181905260248201527f4f776e61626c653a2063616c6c6572206973206e6f7420746865206f776e65726044820152606401610ddc565b60328054911515610100027fffffffffffffffffffffffffffffffffffffffffffffffffffffffffffff00ff909216919091179055565b60005473ffffffffffffffffffffffffffffffffffffffff1633146117d9576040517f08c379a000000000000000000000000000000000000000000000000000000000815260206004820181905260248201527f4f776e61626c653a2063616c6c6572206973206e6f7420746865206f776e65726044820152606401610ddc565b602a55565b905090565b60005473ffffffffffffffffffffffffffffffffffffffff163314611864576040517f08c379a000000000000000000000000000000000000000000000000000000000815260206004820181905260248201527f4f776e61626c653a2063616c6c6572206973206e6f7420746865206f776e65726044820152606401610ddc565b602855565b606060028054610cdc90613fda565b60005473ffffffffffffffffffffffffffffffffffffffff1633146118f9576040517f08c379a000000000000000000000000000000000000000000000000000000000815260206004820181905260248201527f4f776e61626c653a2063616c6c6572206973206e6f7420746865206f776e65726044820152606401610ddc565b60395473ffffffffffffffffffffffffffffffffffffffff838116911614156119a4576040517f08c379a000000000000000000000000000000000000000000000000000000000815260206004820152603960248201527f54686520706169722063616e6e6f742062652072656d6f7665642066726f6d2060448201527f6175746f6d617465644d61726b65744d616b65725061697273000000000000006064820152608401610ddc565b6119ae8282613165565b5050565b60005473ffffffffffffffffffffffffffffffffffffffff163314611a33576040517f08c379a000000000000000000000000000000000000000000000000000000000815260206004820181905260248201527f4f776e61626c653a2063616c6c6572206973206e6f7420746865206f776e65726044820152606401610ddc565b73ffffffffffffffffffffffffffffffffffffffff91909116600090815260156020526040902080547fffffffffffffffffffffffffffffffffffffffffffffffffffffffffffffff0016911515919091179055565b60005473ffffffffffffffffffffffffffffffffffffffff163314611b0a576040517f08c379a000000000000000000000000000000000000000000000000000000000815260206004820181905260248201527f4f776e61626c653a2063616c6c6572206973206e6f7420746865206f776e65726044820152606401610ddc565b6006819055600954606490611b20908390613f86565b611b2a9190613f4b565b60145550565b6000610df7338484612590565b60005473ffffffffffffffffffffffffffffffffffffffff163314611bbe576040517f08c379a000000000000000000000000000000000000000000000000000000000815260206004820181905260248201527f4f776e61626c653a2063616c6c6572206973206e6f7420746865206f776e65726044820152606401610ddc565b6000601b819055602a81905560198190556028819055601d819055602c81905561169e906116a0565b60005473ffffffffffffffffffffffffffffffffffffffff163314611c68576040517f08c379a000000000000000000000000000000000000000000000000000000000815260206004820181905260248201527f4f776e61626c653a2063616c6c6572206973206e6f7420746865206f776e65726044820152606401610ddc565b73ffffffffffffffffffffffffffffffffffffffff166000908152600c6020526040902080547fffffffffffffffffffffffffffffffffffffffffffffffffffffffffffffff00169055565b60005473ffffffffffffffffffffffffffffffffffffffff163314611d35576040517f08c379a000000000000000000000000000000000000000000000000000000000815260206004820181905260248201527f4f776e61626c653a2063616c6c6572206973206e6f7420746865206f776e65726044820152606401610ddc565b601080547fffffffffffffffffffffffff00000000000000000000000000000000000000001673ffffffffffffffffffffffffffffffffffffffff92909216919091179055565b60005473ffffffffffffffffffffffffffffffffffffffff163314611dfd576040517f08c379a000000000000000000000000000000000000000000000000000000000815260206004820181905260248201527f4f776e61626c653a2063616c6c6572206973206e6f7420746865206f776e65726044820152606401610ddc565b73ffffffffffffffffffffffffffffffffffffffff16600090815260176020526040902080547fffffffffffffffffffffffffffffffffffffffffffffffffffffffffffffff00166001179055565b60006117de4342613fc3565b60005473ffffffffffffffffffffffffffffffffffffffff163314611ed9576040517f08c379a000000000000000000000000000000000000000000000000000000000815260206004820181905260248201527f4f776e61626c653a2063616c6c6572206973206e6f7420746865206f776e65726044820152606401610ddc565b60078190556009546103e890611ef0908390613f86565b611efa9190613f4b565b600a5550565b60005473ffffffffffffffffffffffffffffffffffffffff163314611f81576040517f08c379a000000000000000000000000000000000000000000000000000000000815260206004820181905260248201527f4f776e61626c653a2063616c6c6572206973206e6f7420746865206f776e65726044820152606401610ddc565b600855565b60005473ffffffffffffffffffffffffffffffffffffffff163314612007576040517f08c379a000000000000000000000000000000000000000000000000000000000815260206004820181905260248201527f4f776e61626c653a2063616c6c6572206973206e6f7420746865206f776e65726044820152606401610ddc565b601180547fffffffffffffffffffffffff00000000000000000000000000000000000000001673ffffffffffffffffffffffffffffffffffffffff92909216919091179055565b60005473ffffffffffffffffffffffffffffffffffffffff1633146120cf576040517f08c379a000000000000000000000000000000000000000000000000000000000815260206004820181905260248201527f4f776e61626c653a2063616c6c6572206973206e6f7420746865206f776e65726044820152606401610ddc565b601b55565b60005473ffffffffffffffffffffffffffffffffffffffff163314612155576040517f08c379a000000000000000000000000000000000000000000000000000000000815260206004820181905260248201527f4f776e61626c653a2063616c6c6572206973206e6f7420746865206f776e65726044820152606401610ddc565b73ffffffffffffffffffffffffffffffffffffffff81166121f8576040517f08c379a000000000000000000000000000000000000000000000000000000000815260206004820152602660248201527f4f776e61626c653a206e6577206f776e657220697320746865207a65726f206160448201527f64647265737300000000000000000000000000000000000000000000000000006064820152608401610ddc565b612201816130f0565b50565b60005473ffffffffffffffffffffffffffffffffffffffff163314612285576040517f08c379a000000000000000000000000000000000000000000000000000000000815260206004820181905260248201527f4f776e61626c653a2063616c6c6572206973206e6f7420746865206f776e65726044820152606401610ddc565b6040517fa9059cbb00000000000000000000000000000000000000000000000000000000815273ffffffffffffffffffffffffffffffffffffffff83811660048301526024820183905284169063a9059cbb90604401602060405180830381600087803b1580156122f557600080fd5b505af1158015612309573d6000803e3d6000fd5b505050506040513d601f19601f8201168201806040525081019061232d9190613dc2565b50505050565b60005473ffffffffffffffffffffffffffffffffffffffff1633146123b4576040517f08c379a000000000000000000000000000000000000000000000000000000000815260206004820181905260248201527f4f776e61626c653a2063616c6c6572206973206e6f7420746865206f776e65726044820152606401610ddc565b6004601b55600a6019556001601d8190556005602a55600d6028556002602c5561169e906116a0565b73ffffffffffffffffffffffffffffffffffffffff831661247f576040517f08c379a0000000000000000000000000000000000000000000000000000000008152602060048201526024808201527f45524332303a20617070726f76652066726f6d20746865207a65726f2061646460448201527f72657373000000000000000000000000000000000000000000000000000000006064820152608401610ddc565b73ffffffffffffffffffffffffffffffffffffffff8216612522576040517f08c379a000000000000000000000000000000000000000000000000000000000815260206004820152602260248201527f45524332303a20617070726f766520746f20746865207a65726f20616464726560448201527f73730000000000000000000000000000000000000000000000000000000000006064820152608401610ddc565b73ffffffffffffffffffffffffffffffffffffffff8381166000818152600d602090815260408083209487168084529482529182902085905590518481527f8c5be1e5ebec7d5bd14f71427d1e84f3dd0314c0f7b2291e5b200ac8c7c3b925910160405180910390a3505050565b73ffffffffffffffffffffffffffffffffffffffff8316612633576040517f08c379a000000000000000000000000000000000000000000000000000000000815260206004820152602560248201527f45524332303a207472616e736665722066726f6d20746865207a65726f20616460448201527f64726573730000000000000000000000000000000000000000000000000000006064820152608401610ddc565b73ffffffffffffffffffffffffffffffffffffffff82166126d6576040517f08c379a000000000000000000000000000000000000000000000000000000000815260206004820152602360248201527f45524332303a207472616e7366657220746f20746865207a65726f206164647260448201527f65737300000000000000000000000000000000000000000000000000000000006064820152608401610ddc565b60008111612766576040517f08c379a000000000000000000000000000000000000000000000000000000000815260206004820152603260248201527f45524332303a207472616e73666572656420616d6f756e74206d75737420626560448201527f2067726561746572207468616e207a65726f00000000000000000000000000006064820152608401610ddc565b73ffffffffffffffffffffffffffffffffffffffff83166000908152600b60205260409020548181101561281c576040517f08c379a000000000000000000000000000000000000000000000000000000000815260206004820152602660248201527f45524332303a207472616e7366657220616d6f756e742065786365656473206260448201527f616c616e636500000000000000000000000000000000000000000000000000006064820152608401610ddc565b60245460ff166128e55773ffffffffffffffffffffffffffffffffffffffff831660009081526017602052604090205460ff168061287f575073ffffffffffffffffffffffffffffffffffffffff841660009081526017602052604090205460ff165b6128e5576040517f08c379a000000000000000000000000000000000000000000000000000000000815260206004820152601d60248201527f43616e742074726164652c2074726164652069732064697361626c65640000006044820152606401610ddc565b73ffffffffffffffffffffffffffffffffffffffff831660009081526017602052604090205460ff16158015612941575073ffffffffffffffffffffffffffffffffffffffff841660009081526017602052604090205460ff16155b15612a40576014548211156129d8576040517f08c379a000000000000000000000000000000000000000000000000000000000815260206004820152602860248201527f5472616e7366657220616d6f756e74206578636565647320746865206d61785460448201527f78416d6f756e742e0000000000000000000000000000000000000000000000006064820152608401610ddc565b60395473ffffffffffffffffffffffffffffffffffffffff85811691161415612a405760135482612a2b8573ffffffffffffffffffffffffffffffffffffffff166000908152600b602052604090205490565b612a359190613f33565b1115612a4057600080fd5b306000908152600b6020526040902054600a548110801590612a65575060325460ff16155b8015612a8c575060395473ffffffffffffffffffffffffffffffffffffffff868116911614155b8015612a9f5750603254610100900460ff165b15612aba57600a548110612aba5750600a54612aba816131e4565b73ffffffffffffffffffffffffffffffffffffffff85166000908152600c602052604090205460019060ff1680612b16575073ffffffffffffffffffffffffffffffffffffffff85166000908152600c602052604090205460ff165b15612b245750600060048190555b60008060008060008515612eda57602454610100900460ff16612b4b57612b4b8b8b6132c5565b73ffffffffffffffffffffffffffffffffffffffff8b1660009081526015602052604090205460ff16151560011480612bae575073ffffffffffffffffffffffffffffffffffffffff8a1660009081526015602052604090205460ff1615156001145b15612c15576040517f08c379a000000000000000000000000000000000000000000000000000000000815260206004820152601160248201527f4e6f20626f74732063616e2074726164650000000000000000000000000000006044820152606401610ddc565b73ffffffffffffffffffffffffffffffffffffffff8a166000908152600e602052604090205460ff168015612c65575060385473ffffffffffffffffffffffffffffffffffffffff8b8116911614155b15612d2e576000600455602a54606490612c7f908b613f86565b612c899190613f4b565b945060646028548a612c9b9190613f86565b612ca59190613f4b565b92506064602c548a612cb79190613f86565b612cc19190613f4b565b93506064602e548a612cd39190613f86565b612cdd9190613f4b565b915060646030548a612cef9190613f86565b612cf99190613f4b565b9050808285612d088689613f33565b612d129190613f33565b612d1c9190613f33565b612d269190613f33565b600455612eda565b73ffffffffffffffffffffffffffffffffffffffff8b166000908152600e602052604090205460ff168015612d7e575060385473ffffffffffffffffffffffffffffffffffffffff8c8116911614155b15612eda577f000000000000000000000000000000000000000000000000000000000000000060255443612db29190613fc3565b1015612e1a5773ffffffffffffffffffffffffffffffffffffffff8a16600090815260156020526040812080547fffffffffffffffffffffffffffffffffffffffffffffffffffffffffffffff001660011790556027805491612e148361402e565b91905055505b6000600455601b54606490612e2f908b613f86565b612e399190613f4b565b945060646019548a612e4b9190613f86565b612e559190613f4b565b92506064601d548a612e679190613f86565b612e719190613f4b565b93506064601f548a612e839190613f86565b612e8d9190613f4b565b915060646021548a612e9f9190613f86565b612ea99190613f4b565b9050808285612eb88689613f33565b612ec29190613f33565b612ecc9190613f33565b612ed69190613f33565b6004555b612ee48989613fc3565b73ffffffffffffffffffffffffffffffffffffffff8c166000908152600b602052604090205580828486612f18898e613fc3565b612f229190613fc3565b612f2c9190613fc3565b612f369190613fc3565b612f409190613fc3565b73ffffffffffffffffffffffffffffffffffffffff8b166000908152600b602052604081208054909190612f75908490613f33565b9091555050821561307557600454306000908152600b602052604081208054909190612fa2908490613f33565b925050819055508260356000828254612fbb9190613f33565b925050819055508360346000828254612fd49190613f33565b925050819055508460336000828254612fed9190613f33565b9250508190555081603660008282546130069190613f33565b92505081905550806037600082825461301f9190613f33565b9091555050600454604051908152309073ffffffffffffffffffffffffffffffffffffffff8d16907fddf252ad1be2c89b69c2b068fc378daa952ba7f163c4a11628f55a4df523b3ef9060200160405180910390a35b8973ffffffffffffffffffffffffffffffffffffffff168b73ffffffffffffffffffffffffffffffffffffffff167fddf252ad1be2c89b69c2b068fc378daa952ba7f163c4a11628f55a4df523b3ef6004548c6130d29190613fc3565b60405190815260200160405180910390a35050505050505050505050565b6000805473ffffffffffffffffffffffffffffffffffffffff8381167fffffffffffffffffffffffff0000000000000000000000000000000000000000831681178455604051919092169283917f8be0079c531659141344cd1fd0a4f28419497f9722a3daafe3b4186f6b6457e09190a35050565b73ffffffffffffffffffffffffffffffffffffffff82166000818152600e602052604080822080547fffffffffffffffffffffffffffffffffffffffffffffffffffffffffffffff001685151590811790915590519092917fffa9187bf1f18bf477bd0ea1bcbb64e93b6a98132473929edfce215cd9b16fab91a35050565b603280547fffffffffffffffffffffffffffffffffffffffffffffffffffffffffffffff0016600117905560375460335460009161322191613f33565b905061322e603554613428565b613237816134af565b613242603454613675565b61324d603654613860565b6040518281527f4596ef7337c1c88bb740707471cfc0ec6d0212036b05ab1bdbb09cf3e3f019049060200160405180910390a1505060006033819055603481905560358190556036819055603755603280547fffffffffffffffffffffffffffffffffffffffffffffffffffffffffffffff00169055565b602454610100900460ff161561335d576040517f08c379a000000000000000000000000000000000000000000000000000000000815260206004820152602360248201527f4c697175696469747920616c726561647920616464656420616e64206d61726b60448201527f65642e00000000000000000000000000000000000000000000000000000000006064820152608401610ddc565b6133678282613885565b15801561338e575060395473ffffffffffffffffffffffffffffffffffffffff8281169116145b156119ae575073ffffffffffffffffffffffffffffffffffffffff16600090815260176020526040902080547fffffffffffffffffffffffffffffffffffffffffffffffffffffffffffffff00166001179055602480547fffffffffffffffffffffffffffffffffffffffffffffffffffffffffffff00ff9081166101009081179092554360255542602655603280549091169091179055565b6000613435600283613f4b565b905060006134438284613fc3565b90504761344f836139d2565b600061345b8247613fc3565b90506134678382613b5e565b60408051858152602081018390529081018490527f17bbfb9a6069321b6ded73bd96327c9e6b7212a5cd51ff219cd61370acafb5619060600160405180910390a15050505050565b60408051600280825260608201835260009260208301908036833701905050905030816000815181106134e4576134e4614096565b73ffffffffffffffffffffffffffffffffffffffff928316602091820292909201810191909152603854604080517fad5c46480000000000000000000000000000000000000000000000000000000081529051919093169263ad5c4648926004808301939192829003018186803b15801561355e57600080fd5b505afa158015613572573d6000803e3d6000fd5b505050506040513d601f19601f820116820180604052508101906135969190613cb4565b816001815181106135a9576135a9614096565b73ffffffffffffffffffffffffffffffffffffffff92831660209182029290920101526038546135dc91309116846123dd565b6038546010546040517f791ac94700000000000000000000000000000000000000000000000000000000815273ffffffffffffffffffffffffffffffffffffffff9283169263791ac9479261363f92879260009288929116904290600401613eea565b600060405180830381600087803b15801561365957600080fd5b505af115801561366d573d6000803e3d6000fd5b505050505050565b6000613682600283613f4b565b905060006136908284613fc3565b604080516002808252606082018352929350600092909160208301908036833701905050905030816000815181106136ca576136ca614096565b73ffffffffffffffffffffffffffffffffffffffff928316602091820292909201810191909152603854604080517fad5c46480000000000000000000000000000000000000000000000000000000081529051919093169263ad5c4648926004808301939192829003018186803b15801561374457600080fd5b505afa158015613758573d6000803e3d6000fd5b505050506040513d601f19601f8201168201806040525081019061377c9190613cb4565b8160018151811061378f5761378f614096565b73ffffffffffffffffffffffffffffffffffffffff92831660209182029290920101526038546137c291309116866123dd565b6038546010546040517f791ac94700000000000000000000000000000000000000000000000000000000815273ffffffffffffffffffffffffffffffffffffffff9283169263791ac9479261382592889260009288929116904290600401613eea565b600060405180830381600087803b15801561383f57600080fd5b505af1158015613853573d6000803e3d6000fd5b5050505061232d82613c72565b60125461220190309073ffffffffffffffffffffffffffffffffffffffff1683612590565b6000805473ffffffffffffffffffffffffffffffffffffffff8481169116148015906138cc575060005473ffffffffffffffffffffffffffffffffffffffff838116911614155b80156138fe575073ffffffffffffffffffffffffffffffffffffffff821660009081526017602052604090205460ff16155b8015613930575073ffffffffffffffffffffffffffffffffffffffff831660009081526017602052604090205460ff16155b801561398857507f000000000000000000000000000000000000000000000000000000000000000073ffffffffffffffffffffffffffffffffffffffff168273ffffffffffffffffffffffffffffffffffffffff1614155b80156139a9575073ffffffffffffffffffffffffffffffffffffffff821615155b80156139cb575073ffffffffffffffffffffffffffffffffffffffff83163014155b9392505050565b6040805160028082526060820183526000926020830190803683370190505090503081600081518110613a0757613a07614096565b73ffffffffffffffffffffffffffffffffffffffff928316602091820292909201810191909152603854604080517fad5c46480000000000000000000000000000000000000000000000000000000081529051919093169263ad5c4648926004808301939192829003018186803b158015613a8157600080fd5b505afa158015613a95573d6000803e3d6000fd5b505050506040513d601f19601f82011682018060405250810190613ab99190613cb4565b81600181518110613acc57613acc614096565b73ffffffffffffffffffffffffffffffffffffffff9283166020918202929092010152603854613aff91309116846123dd565b6038546040517f791ac94700000000000000000000000000000000000000000000000000000000815273ffffffffffffffffffffffffffffffffffffffff9091169063791ac9479061363f908590600090869030904290600401613eea565b603854613b8390309073ffffffffffffffffffffffffffffffffffffffff16846123dd565b6038546040517ff305d71900000000000000000000000000000000000000000000000000000000815230600482015260248101849052600060448201819052606482015273ffffffffffffffffffffffffffffffffffffffff7f0000000000000000000000000000000000000000000000000000000000000000811660848301524260a48301529091169063f305d71990839060c4016060604051808303818588803b158015613c3257600080fd5b505af1158015613c46573d6000803e3d6000fd5b50505050506040513d601f19601f82011682018060405250810190613c6b9190613df8565b5050505050565b60115461220190309073ffffffffffffffffffffffffffffffffffffffff1683612590565b600060208284031215613ca957600080fd5b81356139cb816140c5565b600060208284031215613cc657600080fd5b81516139cb816140c5565b60008060408385031215613ce457600080fd5b8235613cef816140c5565b91506020830135613cff816140e7565b809150509250929050565b60008060408385031215613d1d57600080fd5b8235613d28816140c5565b91506020830135613cff816140c5565b600080600060608486031215613d4d57600080fd5b8335613d58816140c5565b92506020840135613d68816140c5565b929592945050506040919091013590565b60008060408385031215613d8c57600080fd5b8235613d97816140c5565b946020939093013593505050565b600060208284031215613db757600080fd5b81356139cb816140e7565b600060208284031215613dd457600080fd5b81516139cb816140e7565b600060208284031215613df157600080fd5b5035919050565b600080600060608486031215613e0d57600080fd5b8351925060208401519150604084015190509250925092565b600081518084526020808501945080840160005b83811015613e6c57815173ffffffffffffffffffffffffffffffffffffffff1687529582019590820190600101613e3a565b509495945050505050565b600060208083528351808285015260005b81811015613ea457858101830151858201604001528201613e88565b81811115613eb6576000604083870101525b50601f017fffffffffffffffffffffffffffffffffffffffffffffffffffffffffffffffe016929092016040019392505050565b85815284602082015260a060408201526000613f0960a0830186613e26565b73ffffffffffffffffffffffffffffffffffffffff94909416606083015250608001529392505050565b60008219821115613f4657613f46614067565b500190565b600082613f81577f4e487b7100000000000000000000000000000000000000000000000000000000600052601260045260246000fd5b500490565b6000817fffffffffffffffffffffffffffffffffffffffffffffffffffffffffffffffff0483118215151615613fbe57613fbe614067565b500290565b600082821015613fd557613fd5614067565b500390565b600181811c90821680613fee57607f821691505b60208210811415614028577f4e487b7100000000000000000000000000000000000000000000000000000000600052602260045260246000fd5b50919050565b60007fffffffffffffffffffffffffffffffffffffffffffffffffffffffffffffffff82141561406057614060614067565b5060010190565b7f4e487b7100000000000000000000000000000000000000000000000000000000600052601160045260246000fd5b7f4e487b7100000000000000000000000000000000000000000000000000000000600052603260045260246000fd5b73ffffffffffffffffffffffffffffffffffffffff8116811461220157600080fd5b801515811461220157600080fdfea2646970667358221220ecbe760afd59b35252b3b5b4db8584d026c828e62112eb6eebc288c0dd1a47e964736f6c63430008070033",
  "linkReferences": {},
  "deployedLinkReferences": {}
}